{
  "_format": "hh-sol-artifact-1",
  "contractName": "Collection1155V2",
  "sourceName": "contracts/Collection1155V2.sol",
  "abi": [
    {
      "anonymous": false,
      "inputs": [
        {
          "indexed": true,
          "internalType": "address",
          "name": "account",
          "type": "address"
        },
        {
          "indexed": true,
          "internalType": "address",
          "name": "operator",
          "type": "address"
        },
        {
          "indexed": false,
          "internalType": "bool",
          "name": "approved",
          "type": "bool"
        }
      ],
      "name": "ApprovalForAll",
      "type": "event"
    },
    {
      "anonymous": false,
      "inputs": [
        {
          "indexed": false,
          "internalType": "uint8",
          "name": "version",
          "type": "uint8"
        }
      ],
      "name": "Initialized",
      "type": "event"
    },
    {
      "anonymous": false,
      "inputs": [
        {
          "indexed": true,
          "internalType": "bytes32",
          "name": "role",
          "type": "bytes32"
        },
        {
          "indexed": true,
          "internalType": "bytes32",
          "name": "previousAdminRole",
          "type": "bytes32"
        },
        {
          "indexed": true,
          "internalType": "bytes32",
          "name": "newAdminRole",
          "type": "bytes32"
        }
      ],
      "name": "RoleAdminChanged",
      "type": "event"
    },
    {
      "anonymous": false,
      "inputs": [
        {
          "indexed": true,
          "internalType": "bytes32",
          "name": "role",
          "type": "bytes32"
        },
        {
          "indexed": true,
          "internalType": "address",
          "name": "account",
          "type": "address"
        },
        {
          "indexed": true,
          "internalType": "address",
          "name": "sender",
          "type": "address"
        }
      ],
      "name": "RoleGranted",
      "type": "event"
    },
    {
      "anonymous": false,
      "inputs": [
        {
          "indexed": true,
          "internalType": "bytes32",
          "name": "role",
          "type": "bytes32"
        },
        {
          "indexed": true,
          "internalType": "address",
          "name": "account",
          "type": "address"
        },
        {
          "indexed": true,
          "internalType": "address",
          "name": "sender",
          "type": "address"
        }
      ],
      "name": "RoleRevoked",
      "type": "event"
    },
    {
      "anonymous": false,
      "inputs": [
        {
          "indexed": true,
          "internalType": "address",
          "name": "operator",
          "type": "address"
        },
        {
          "indexed": true,
          "internalType": "address",
          "name": "from",
          "type": "address"
        },
        {
          "indexed": true,
          "internalType": "address",
          "name": "to",
          "type": "address"
        },
        {
          "indexed": false,
          "internalType": "uint256[]",
          "name": "ids",
          "type": "uint256[]"
        },
        {
          "indexed": false,
          "internalType": "uint256[]",
          "name": "values",
          "type": "uint256[]"
        }
      ],
      "name": "TransferBatch",
      "type": "event"
    },
    {
      "anonymous": false,
      "inputs": [
        {
          "indexed": true,
          "internalType": "address",
          "name": "operator",
          "type": "address"
        },
        {
          "indexed": true,
          "internalType": "address",
          "name": "from",
          "type": "address"
        },
        {
          "indexed": true,
          "internalType": "address",
          "name": "to",
          "type": "address"
        },
        {
          "indexed": false,
          "internalType": "uint256",
          "name": "id",
          "type": "uint256"
        },
        {
          "indexed": false,
          "internalType": "uint256",
          "name": "value",
          "type": "uint256"
        }
      ],
      "name": "TransferSingle",
      "type": "event"
    },
    {
      "anonymous": false,
      "inputs": [
        {
          "indexed": false,
          "internalType": "string",
          "name": "value",
          "type": "string"
        },
        {
          "indexed": true,
          "internalType": "uint256",
          "name": "id",
          "type": "uint256"
        }
      ],
      "name": "URI",
      "type": "event"
    },
    {
      "inputs": [],
      "name": "DEFAULT_ADMIN_ROLE",
      "outputs": [
        {
          "internalType": "bytes32",
          "name": "",
          "type": "bytes32"
        }
      ],
      "stateMutability": "view",
      "type": "function"
    },
    {
      "inputs": [],
      "name": "MINTER_ROLE",
      "outputs": [
        {
          "internalType": "bytes32",
          "name": "",
          "type": "bytes32"
        }
      ],
      "stateMutability": "view",
      "type": "function"
    },
    {
      "inputs": [
        {
          "internalType": "address",
          "name": "",
          "type": "address"
        },
        {
          "internalType": "uint256",
          "name": "",
          "type": "uint256"
        }
      ],
      "name": "balanceOf",
      "outputs": [
        {
          "internalType": "uint256",
          "name": "",
          "type": "uint256"
        }
      ],
      "stateMutability": "view",
      "type": "function"
    },
    {
      "inputs": [
        {
          "internalType": "address[]",
          "name": "owners",
          "type": "address[]"
        },
        {
          "internalType": "uint256[]",
          "name": "ids",
          "type": "uint256[]"
        }
      ],
      "name": "balanceOfBatch",
      "outputs": [
        {
          "internalType": "uint256[]",
          "name": "balances",
          "type": "uint256[]"
        }
      ],
      "stateMutability": "view",
      "type": "function"
    },
    {
      "inputs": [
        {
          "internalType": "uint256[]",
          "name": "ids",
          "type": "uint256[]"
        },
        {
          "internalType": "uint256[]",
          "name": "values",
          "type": "uint256[]"
        }
      ],
      "name": "batchBurn",
      "outputs": [],
      "stateMutability": "nonpayable",
      "type": "function"
    },
    {
      "inputs": [
        {
          "internalType": "address",
          "name": "to",
          "type": "address"
        },
        {
          "internalType": "uint256[]",
          "name": "ids",
          "type": "uint256[]"
        },
        {
          "internalType": "uint256[]",
          "name": "values",
          "type": "uint256[]"
        },
        {
          "internalType": "bytes",
          "name": "data",
          "type": "bytes"
        }
      ],
      "name": "batchMint",
      "outputs": [],
      "stateMutability": "nonpayable",
      "type": "function"
    },
    {
      "inputs": [
        {
          "internalType": "uint256",
          "name": "id",
          "type": "uint256"
        },
        {
          "internalType": "uint256",
          "name": "value",
          "type": "uint256"
        }
      ],
      "name": "burn",
      "outputs": [],
      "stateMutability": "nonpayable",
      "type": "function"
    },
    {
      "inputs": [
        {
          "internalType": "bytes32",
          "name": "role",
          "type": "bytes32"
        }
      ],
      "name": "getRoleAdmin",
      "outputs": [
        {
          "internalType": "bytes32",
          "name": "",
          "type": "bytes32"
        }
      ],
      "stateMutability": "view",
      "type": "function"
    },
    {
      "inputs": [
        {
          "internalType": "bytes32",
          "name": "role",
          "type": "bytes32"
        },
        {
          "internalType": "address",
          "name": "account",
          "type": "address"
        }
      ],
      "name": "grantRole",
      "outputs": [],
      "stateMutability": "nonpayable",
      "type": "function"
    },
    {
      "inputs": [
        {
          "internalType": "bytes32",
          "name": "role",
          "type": "bytes32"
        },
        {
          "internalType": "address",
          "name": "account",
          "type": "address"
        }
      ],
      "name": "hasRole",
      "outputs": [
        {
          "internalType": "bool",
          "name": "",
          "type": "bool"
        }
      ],
      "stateMutability": "view",
      "type": "function"
    },
    {
      "inputs": [
        {
          "internalType": "address",
          "name": "owner",
          "type": "address"
        },
        {
          "internalType": "string",
          "name": "_name",
          "type": "string"
        },
        {
          "internalType": "string",
          "name": "_symbol",
          "type": "string"
        }
      ],
      "name": "initialize",
      "outputs": [],
      "stateMutability": "nonpayable",
      "type": "function"
    },
    {
      "inputs": [
        {
          "internalType": "address",
          "name": "",
          "type": "address"
        },
        {
          "internalType": "address",
          "name": "",
          "type": "address"
        }
      ],
      "name": "isApprovedForAll",
      "outputs": [
        {
          "internalType": "bool",
          "name": "",
          "type": "bool"
        }
      ],
      "stateMutability": "view",
      "type": "function"
    },
    {
      "inputs": [
        {
          "internalType": "address",
          "name": "to",
          "type": "address"
        },
        {
          "internalType": "uint256",
          "name": "id",
          "type": "uint256"
        },
        {
          "internalType": "uint256",
          "name": "value",
          "type": "uint256"
        },
        {
          "internalType": "bytes",
          "name": "data",
          "type": "bytes"
        }
      ],
      "name": "mint",
      "outputs": [
        {
          "internalType": "uint256",
          "name": "tokenId",
          "type": "uint256"
        }
      ],
      "stateMutability": "nonpayable",
      "type": "function"
    },
    {
      "inputs": [
        {
          "internalType": "address",
          "name": "to",
          "type": "address"
        },
        {
          "internalType": "uint256",
          "name": "id",
          "type": "uint256"
        },
        {
          "internalType": "uint256",
          "name": "value",
          "type": "uint256"
        },
        {
          "internalType": "string",
          "name": "newuri",
          "type": "string"
        }
      ],
      "name": "mintWithUri",
      "outputs": [
        {
          "internalType": "uint256",
          "name": "tokenId",
          "type": "uint256"
        }
      ],
      "stateMutability": "nonpayable",
      "type": "function"
    },
    {
      "inputs": [],
      "name": "name",
      "outputs": [
        {
          "internalType": "string",
          "name": "",
          "type": "string"
        }
      ],
      "stateMutability": "view",
      "type": "function"
    },
    {
      "inputs": [
        {
          "internalType": "bytes32",
          "name": "role",
          "type": "bytes32"
        },
        {
          "internalType": "address",
          "name": "account",
          "type": "address"
        }
      ],
      "name": "renounceRole",
      "outputs": [],
      "stateMutability": "nonpayable",
      "type": "function"
    },
    {
      "inputs": [
        {
          "internalType": "bytes32",
          "name": "role",
          "type": "bytes32"
        },
        {
          "internalType": "address",
          "name": "account",
          "type": "address"
        }
      ],
      "name": "revokeRole",
      "outputs": [],
      "stateMutability": "nonpayable",
      "type": "function"
    },
    {
      "inputs": [
        {
          "internalType": "address",
          "name": "from",
          "type": "address"
        },
        {
          "internalType": "address",
          "name": "to",
          "type": "address"
        },
        {
          "internalType": "uint256[]",
          "name": "ids",
          "type": "uint256[]"
        },
        {
          "internalType": "uint256[]",
          "name": "values",
          "type": "uint256[]"
        },
        {
          "internalType": "bytes",
          "name": "data",
          "type": "bytes"
        }
      ],
      "name": "safeBatchTransferFrom",
      "outputs": [],
      "stateMutability": "nonpayable",
      "type": "function"
    },
    {
      "inputs": [
        {
          "internalType": "address",
          "name": "from",
          "type": "address"
        },
        {
          "internalType": "address",
          "name": "to",
          "type": "address"
        },
        {
          "internalType": "uint256",
          "name": "id",
          "type": "uint256"
        },
        {
          "internalType": "uint256",
          "name": "value",
          "type": "uint256"
        },
        {
          "internalType": "bytes",
          "name": "data",
          "type": "bytes"
        }
      ],
      "name": "safeTransferFrom",
      "outputs": [],
      "stateMutability": "nonpayable",
      "type": "function"
    },
    {
      "inputs": [
        {
          "internalType": "address",
          "name": "operator",
          "type": "address"
        },
        {
          "internalType": "bool",
          "name": "approved",
          "type": "bool"
        }
      ],
      "name": "setApprovalForAll",
      "outputs": [],
      "stateMutability": "nonpayable",
      "type": "function"
    },
    {
      "inputs": [
        {
          "internalType": "bytes4",
          "name": "interfaceId",
          "type": "bytes4"
        }
      ],
      "name": "supportsInterface",
      "outputs": [
        {
          "internalType": "bool",
          "name": "",
          "type": "bool"
        }
      ],
      "stateMutability": "view",
      "type": "function"
    },
    {
      "inputs": [],
      "name": "symbol",
      "outputs": [
        {
          "internalType": "string",
          "name": "",
          "type": "string"
        }
      ],
      "stateMutability": "view",
      "type": "function"
    },
    {
      "inputs": [
        {
          "internalType": "uint256",
          "name": "id",
          "type": "uint256"
        }
      ],
      "name": "uri",
      "outputs": [
        {
          "internalType": "string",
          "name": "",
          "type": "string"
        }
      ],
      "stateMutability": "view",
      "type": "function"
    }
  ],
  "bytecode": "0x608060405234801561001057600080fd5b506124e2806100206000396000f3fe608060405234801561001057600080fd5b506004361061014c5760003560e01c806390657147116100c3578063b48ab8b61161007c578063b48ab8b6146102da578063d5391393146102ed578063d547741f14610302578063e0ba74a614610315578063e985e9c514610328578063f242432a1461035657600080fd5b8063906571471461027e57806391d148541461029157806395d89b41146102a4578063a217fddf146102ac578063a22cb465146102b4578063b390c0ab146102c757600080fd5b8063248a9ca311610115578063248a9ca3146101ef5780632eb2c2d6146102125780632f2ff15d1461022557806336568abe146102385780634e1273f41461024b578063731133e91461026b57600080fd5b8062fdd58e1461015157806301ffc9a71461018f57806306fdde03146101b25780630e89341c146101c757806320ec271b146101da575b600080fd5b61017c61015f366004611a56565b600160209081526000928352604080842090915290825290205481565b6040519081526020015b60405180910390f35b6101a261019d366004611a96565b610369565b6040519015158152602001610186565b6101ba6103af565b6040516101869190611b03565b6101ba6101d5366004611b16565b610441565b6101ed6101e8366004611b7b565b6104e3565b005b61017c6101fd366004611b16565b60009081526020819052604090206001015490565b6101ed610220366004611c8a565b6104f6565b6101ed610233366004611d3f565b61084e565b6101ed610246366004611d3f565b610878565b61025e610259366004611b7b565b6108f6565b6040516101869190611da6565b61017c610279366004611db9565b610a3a565b6101ed61028c366004611e1a565b610a6a565b6101a261029f366004611d3f565b610ba0565b6101ba610bc9565b61017c600081565b6101ed6102c2366004611e8e565b610bd8565b6101ed6102d5366004611eca565b610c44565b6101ed6102e8366004611eec565b610c4f565b61017c60008051602061248d83398151915281565b6101ed610310366004611d3f565b610cb5565b61017c610323366004611db9565b610cda565b6101a2610336366004611fc4565b600260209081526000928352604080842090915290825290205460ff1681565b6101ed610364366004611fee565b610d6a565b60006001600160e01b03198216636cdb3d1360e11b148061039a57506001600160e01b031982166303a24d0760e21b145b806103a957506103a982610f3f565b92915050565b6060600580546103be90612060565b80601f01602080910402602001604051908101604052809291908181526020018280546103ea90612060565b80156104375780601f1061040c57610100808354040283529160200191610437565b820191906000526020600020905b81548152906001019060200180831161041a57829003601f168201915b5050505050905090565b600081815260076020526040902080546060919061045e90612060565b80601f016020809104026020016040519081016040528092919081815260200182805461048a90612060565b80156104d75780601f106104ac576101008083540402835291602001916104d7565b820191906000526020600020905b8154815290600101906020018083116104ba57829003601f168201915b50505050509050919050565b6104f03385858585610f74565b50505050565b336001600160a01b038816148061053057506001600160a01b038716600090815260026020908152604080832033845290915290205460ff165b6105705760405162461bcd60e51b815260206004820152600c60248201526b1b9bdd08185c1c1c9bdd995960a21b60448201526064015b60405180910390fd5b6001600160a01b0386166105965760405162461bcd60e51b81526004016105679061209a565b8382146105b55760405162461bcd60e51b8152600401610567906120c2565b60005b84811015610777578383828181106105d2576105d26120f9565b90506020020135600160008a6001600160a01b03166001600160a01b031681526020019081526020016000206000888885818110610612576106126120f9565b90506020020135815260200190815260200160002054101561066d5760405162461bcd60e51b8152602060048201526014602482015273696e73756666696369656e742062616c616e636560601b6044820152606401610567565b83838281811061067f5761067f6120f9565b90506020020135600160008a6001600160a01b03166001600160a01b0316815260200190815260200160002060008888858181106106bf576106bf6120f9565b90506020020135815260200190815260200160002060008282546106e39190612125565b9091555084905083828181106106fb576106fb6120f9565b9050602002013560016000896001600160a01b03166001600160a01b03168152602001908152602001600020600088888581811061073b5761073b6120f9565b905060200201358152602001908152602001600020600082825461075f9190612138565b9091555081905061076f8161214b565b9150506105b8565b50856001600160a01b0316876001600160a01b0316336001600160a01b03167f4a39dc06d4c0dbc64b70af90fd698a233a518aa5d07e595d983b8c0526c8f7fb888888886040516107cb9493929190612196565b60405180910390a461084533888888888080602002602001604051908101604052809392919081815260200183836020028082843760009201919091525050604080516020808c0282810182019093528b82529093508b92508a918291850190849080828437600092019190915250899250611188915050565b50505050505050565b60008281526020819052604090206001015461086981611282565b610873838361128f565b505050565b6001600160a01b03811633146108e85760405162461bcd60e51b815260206004820152602f60248201527f416363657373436f6e74726f6c3a2063616e206f6e6c792072656e6f756e636560448201526e103937b632b9903337b91039b2b63360891b6064820152608401610567565b6108f28282611313565b5050565b60608382146109475760405162461bcd60e51b815260206004820152601b60248201527f6f776e657273206c656e67746820213d20696473206c656e67746800000000006044820152606401610567565b8367ffffffffffffffff81111561096057610960611be7565b604051908082528060200260200182016040528015610989578160200160208202803683370190505b50905060005b84811015610a3157600160008787848181106109ad576109ad6120f9565b90506020020160208101906109c291906121c8565b6001600160a01b03166001600160a01b0316815260200190815260200160002060008585848181106109f6576109f66120f9565b90506020020135815260200190815260200160002054828281518110610a1e57610a1e6120f9565b602090810291909101015260010161098f565b50949350505050565b600060008051602061248d833981519152610a5481611282565b610a6086868686611378565b5092949350505050565b600354610100900460ff1615808015610a8a5750600354600160ff909116105b80610aa45750303b158015610aa4575060035460ff166001145b610b075760405162461bcd60e51b815260206004820152602e60248201527f496e697469616c697a61626c653a20636f6e747261637420697320616c72656160448201526d191e481a5b9a5d1a585b1a5e995960921b6064820152608401610567565b6003805460ff191660011790558015610b2a576003805461ff0019166101001790555b6003805462010000600160b01b031916620100006001600160a01b03871602179055610b558461142e565b80156104f0576003805461ff0019169055604051600181527f7f26b83ff96e1f2b6a682f133852f6798a09c465da95921460cefb38474024989060200160405180910390a150505050565b6000918252602082815260408084206001600160a01b0393909316845291905290205460ff1690565b6060600680546103be90612060565b3360008181526002602090815260408083206001600160a01b03871680855290835292819020805460ff191686151590811790915590519081529192917f17307eab39ab6107e8899845ad3d59bd9653f200f220920489ca2b5937696c31910160405180910390a35050565b6108f2338383611451565b60008051602061248d833981519152610c6781611282565b610cab888888888888888080601f01602080910402602001604051908101604052809392919081815260200183838082843760009201919091525061158c92505050565b5050505050505050565b600082815260208190526040902060010154610cd081611282565b6108738383611313565b600060008051602061248d833981519152610cf481611282565b610d0f86868660405180602001604052806000815250611378565b6000858152600760205260409020610d278482612229565b50847f6bb7ff708619ba0610cba295a58592e0451dee2622938c8755667688daf3529b84604051610d589190611b03565b60405180910390a25092949350505050565b336001600160a01b0386161480610da457506001600160a01b038516600090815260026020908152604080832033845290915290205460ff165b610ddf5760405162461bcd60e51b815260206004820152600c60248201526b1b9bdd08185c1c1c9bdd995960a21b6044820152606401610567565b6001600160a01b038416610e055760405162461bcd60e51b81526004016105679061209a565b6001600160a01b0385166000908152600160209081526040808320868452909152902054821115610e6f5760405162461bcd60e51b8152602060048201526014602482015273696e73756666696369656e742062616c616e636560601b6044820152606401610567565b6001600160a01b038516600090815260016020908152604080832086845290915281208054849290610ea2908490612125565b90915550506001600160a01b038416600090815260016020908152604080832086845290915281208054849290610eda908490612138565b909155505060408051848152602081018490526001600160a01b03808716929088169133917fc3d58168c5ae7397731d063d5bbf3d657854427343f4c083240f7aacaa2d0f62910160405180910390a4610f3833868686868661173a565b5050505050565b60006001600160e01b03198216637965db0b60e01b14806103a957506301ffc9a760e01b6001600160e01b03198316146103a9565b6001600160a01b038516610fbd5760405162461bcd60e51b815260206004820152601060248201526f66726f6d203d2030206164647265737360801b6044820152606401610567565b828114610fdc5760405162461bcd60e51b8152600401610567906120c2565b60005b8381101561112457828282818110610ff957610ff96120f9565b9050602002013560016000886001600160a01b03166001600160a01b031681526020019081526020016000206000878785818110611039576110396120f9565b9050602002013581526020019081526020016000205410156110965760405162461bcd60e51b81526020600482015260166024820152750e8ded6cadc40ecc2d8eaca40dcdee840cadcdeeaced60531b6044820152606401610567565b8282828181106110a8576110a86120f9565b9050602002013560016000886001600160a01b03166001600160a01b0316815260200190815260200160002060008787858181106110e8576110e86120f9565b905060200201358152602001908152602001600020600082825461110c9190612125565b9091555081905061111c8161214b565b915050610fdf565b5060006001600160a01b0316856001600160a01b0316336001600160a01b03167f4a39dc06d4c0dbc64b70af90fd698a233a518aa5d07e595d983b8c0526c8f7fb878787876040516111799493929190612196565b60405180910390a45050505050565b833b1561127a5760405163bc197c8160e01b81526001600160a01b0385169063bc197c81906111c390899089908890889088906004016122e9565b6020604051808303816000875af19250505080156111fe575060408051601f3d908101601f191682019092526111fb91810190612347565b60015b61121a5760405162461bcd60e51b815260040161056790612364565b6001600160e01b0319811663bc197c8160e01b146108455760405162461bcd60e51b815260206004820152601f60248201527f4552433131353552656365697665722072656a656374656420746f6b656e73006044820152606401610567565b505050505050565b61128c813361182c565b50565b6112998282610ba0565b6108f2576000828152602081815260408083206001600160a01b03851684529091529020805460ff191660011790556112cf3390565b6001600160a01b0316816001600160a01b0316837f2f8788117e7eff1d82e926ec794901d17c78024a50270940304540a733656f0d60405160405180910390a45050565b61131d8282610ba0565b156108f2576000828152602081815260408083206001600160a01b0385168085529252808320805460ff1916905551339285917ff6391f5c32d9c69d2a47ea670b442974b53935d1edc7fd64eb21e047a839171b9190a45050565b6001600160a01b03841661139e5760405162461bcd60e51b81526004016105679061209a565b6001600160a01b0384166000908152600160209081526040808320868452909152812080548492906113d1908490612138565b909155505060408051848152602081018490526001600160a01b0386169160009133917fc3d58168c5ae7397731d063d5bbf3d657854427343f4c083240f7aacaa2d0f62910160405180910390a46104f03360008686868661173a565b61143960008261128f565b61128c60008051602061248d8339815191528261128f565b6001600160a01b03831661149a5760405162461bcd60e51b815260206004820152601060248201526f66726f6d203d2030206164647265737360801b6044820152606401610567565b6001600160a01b03831660009081526001602090815260408083208584529091529020548111156115065760405162461bcd60e51b81526020600482015260166024820152750e8ded6cadc40ecc2d8eaca40dcdee840cadcdeeaced60531b6044820152606401610567565b6001600160a01b038316600090815260016020908152604080832085845290915281208054839290611539908490612125565b909155505060408051838152602081018390526000916001600160a01b0386169133917fc3d58168c5ae7397731d063d5bbf3d657854427343f4c083240f7aacaa2d0f62910160405180910390a4505050565b6001600160a01b0386166115b25760405162461bcd60e51b81526004016105679061209a565b8382146115d15760405162461bcd60e51b8152600401610567906120c2565b60005b8481101561166a578383828181106115ee576115ee6120f9565b9050602002013560016000896001600160a01b03166001600160a01b03168152602001908152602001600020600088888581811061162e5761162e6120f9565b90506020020135815260200190815260200160002060008282546116529190612138565b909155508190506116628161214b565b9150506115d4565b50856001600160a01b031660006001600160a01b0316336001600160a01b03167f4a39dc06d4c0dbc64b70af90fd698a233a518aa5d07e595d983b8c0526c8f7fb888888886040516116bf9493929190612196565b60405180910390a461127a3360008888888080602002602001604051908101604052809392919081815260200183836020028082843760009201919091525050604080516020808c0282810182019093528b82529093508b92508a918291850190849080828437600092019190915250899250611188915050565b833b1561127a5760405163f23a6e6160e01b81526001600160a01b0385169063f23a6e619061177590899089908890889088906004016123af565b6020604051808303816000875af19250505080156117b0575060408051601f3d908101601f191682019092526117ad91810190612347565b60015b6117cc5760405162461bcd60e51b815260040161056790612364565b6001600160e01b0319811663f23a6e6160e01b146108455760405162461bcd60e51b815260206004820152601f60248201527f4552433131353552656365697665722072656a656374656420746f6b656e73006044820152606401610567565b6118368282610ba0565b6108f25761184381611885565b61184e836020611897565b60405160200161185f9291906123e9565b60408051601f198184030181529082905262461bcd60e51b825261056791600401611b03565b60606103a96001600160a01b03831660145b606060006118a683600261245e565b6118b1906002612138565b67ffffffffffffffff8111156118c9576118c9611be7565b6040519080825280601f01601f1916602001820160405280156118f3576020820181803683370190505b509050600360fc1b8160008151811061190e5761190e6120f9565b60200101906001600160f81b031916908160001a905350600f60fb1b8160018151811061193d5761193d6120f9565b60200101906001600160f81b031916908160001a905350600061196184600261245e565b61196c906001612138565b90505b60018111156119e4576f181899199a1a9b1b9c1cb0b131b232b360811b85600f16601081106119a0576119a06120f9565b1a60f81b8282815181106119b6576119b66120f9565b60200101906001600160f81b031916908160001a90535060049490941c936119dd81612475565b905061196f565b508315611a335760405162461bcd60e51b815260206004820181905260248201527f537472696e67733a20686578206c656e67746820696e73756666696369656e746044820152606401610567565b9392505050565b80356001600160a01b0381168114611a5157600080fd5b919050565b60008060408385031215611a6957600080fd5b611a7283611a3a565b946020939093013593505050565b6001600160e01b03198116811461128c57600080fd5b600060208284031215611aa857600080fd5b8135611a3381611a80565b60005b83811015611ace578181015183820152602001611ab6565b50506000910152565b60008151808452611aef816020860160208601611ab3565b601f01601f19169290920160200192915050565b602081526000611a336020830184611ad7565b600060208284031215611b2857600080fd5b5035919050565b60008083601f840112611b4157600080fd5b50813567ffffffffffffffff811115611b5957600080fd5b6020830191508360208260051b8501011115611b7457600080fd5b9250929050565b60008060008060408587031215611b9157600080fd5b843567ffffffffffffffff80821115611ba957600080fd5b611bb588838901611b2f565b90965094506020870135915080821115611bce57600080fd5b50611bdb87828801611b2f565b95989497509550505050565b634e487b7160e01b600052604160045260246000fd5b600082601f830112611c0e57600080fd5b813567ffffffffffffffff80821115611c2957611c29611be7565b604051601f8301601f19908116603f01168101908282118183101715611c5157611c51611be7565b81604052838152866020858801011115611c6a57600080fd5b836020870160208301376000602085830101528094505050505092915050565b600080600080600080600060a0888a031215611ca557600080fd5b611cae88611a3a565b9650611cbc60208901611a3a565b9550604088013567ffffffffffffffff80821115611cd957600080fd5b611ce58b838c01611b2f565b909750955060608a0135915080821115611cfe57600080fd5b611d0a8b838c01611b2f565b909550935060808a0135915080821115611d2357600080fd5b50611d308a828b01611bfd565b91505092959891949750929550565b60008060408385031215611d5257600080fd5b82359150611d6260208401611a3a565b90509250929050565b600081518084526020808501945080840160005b83811015611d9b57815187529582019590820190600101611d7f565b509495945050505050565b602081526000611a336020830184611d6b565b60008060008060808587031215611dcf57600080fd5b611dd885611a3a565b93506020850135925060408501359150606085013567ffffffffffffffff811115611e0257600080fd5b611e0e87828801611bfd565b91505092959194509250565b600080600060608486031215611e2f57600080fd5b611e3884611a3a565b9250602084013567ffffffffffffffff80821115611e5557600080fd5b611e6187838801611bfd565b93506040860135915080821115611e7757600080fd5b50611e8486828701611bfd565b9150509250925092565b60008060408385031215611ea157600080fd5b611eaa83611a3a565b915060208301358015158114611ebf57600080fd5b809150509250929050565b60008060408385031215611edd57600080fd5b50508035926020909101359150565b60008060008060008060006080888a031215611f0757600080fd5b611f1088611a3a565b9650602088013567ffffffffffffffff80821115611f2d57600080fd5b611f398b838c01611b2f565b909850965060408a0135915080821115611f5257600080fd5b611f5e8b838c01611b2f565b909650945060608a0135915080821115611f7757600080fd5b818a0191508a601f830112611f8b57600080fd5b813581811115611f9a57600080fd5b8b6020828501011115611fac57600080fd5b60208301945080935050505092959891949750929550565b60008060408385031215611fd757600080fd5b611fe083611a3a565b9150611d6260208401611a3a565b600080600080600060a0868803121561200657600080fd5b61200f86611a3a565b945061201d60208701611a3a565b93506040860135925060608601359150608086013567ffffffffffffffff81111561204757600080fd5b61205388828901611bfd565b9150509295509295909350565b600181811c9082168061207457607f821691505b60208210810361209457634e487b7160e01b600052602260045260246000fd5b50919050565b6020808252600e908201526d746f203d2030206164647265737360901b604082015260600190565b6020808252601b908201527f696473206c656e67746820213d2076616c756573206c656e6774680000000000604082015260600190565b634e487b7160e01b600052603260045260246000fd5b634e487b7160e01b600052601160045260246000fd5b818103818111156103a9576103a961210f565b808201808211156103a9576103a961210f565b60006001820161215d5761215d61210f565b5060010190565b81835260006001600160fb1b0383111561217d57600080fd5b8260051b80836020870137939093016020019392505050565b6040815260006121aa604083018688612164565b82810360208401526121bd818587612164565b979650505050505050565b6000602082840312156121da57600080fd5b611a3382611a3a565b601f82111561087357600081815260208120601f850160051c8101602086101561220a5750805b601f850160051c820191505b8181101561127a57828155600101612216565b815167ffffffffffffffff81111561224357612243611be7565b612257816122518454612060565b846121e3565b602080601f83116001811461228c57600084156122745750858301515b600019600386901b1c1916600185901b17855561127a565b600085815260208120601f198616915b828110156122bb5788860151825594840194600190910190840161229c565b50858210156122d95787850151600019600388901b60f8161c191681555b5050505050600190811b01905550565b6001600160a01b0386811682528516602082015260a06040820181905260009061231590830186611d6b565b82810360608401526123278186611d6b565b9050828103608084015261233b8185611ad7565b98975050505050505050565b60006020828403121561235957600080fd5b8151611a3381611a80565b6020808252602b908201527f7472616e7366657220746f206e6f6e204552433131353552656365697665722060408201526a34b6b83632b6b2b73a32b960a91b606082015260800190565b6001600160a01b03868116825285166020820152604081018490526060810183905260a0608082018190526000906121bd90830184611ad7565b7f416363657373436f6e74726f6c3a206163636f756e7420000000000000000000815260008351612421816017850160208801611ab3565b7001034b99036b4b9b9b4b733903937b6329607d1b6017918401918201528351612452816028840160208801611ab3565b01602801949350505050565b80820281158282048414176103a9576103a961210f565b6000816124845761248461210f565b50600019019056fe9f2df0fed2c77648de5860a4cc508cd0818c85b8b8a1ab4ceeef8d981c8956a6a2646970667358221220130171531c442ba289552d2f480b8920e011834f18dbc30a21ad339bd721a57c64736f6c63430008140033",
  "linkReferences": {},
  "deployedLinkReferences": {}
}