{
  "_format": "hh-sol-artifact-1",
  "contractName": "DataRegistryV2",
  "sourceName": "contracts/DataRegistryV2.sol",
  "abi": [
    {
      "anonymous": false,
      "inputs": [
        {
          "indexed": true,
          "internalType": "address",
          "name": "owner",
          "type": "address"
        },
        {
          "indexed": true,
          "internalType": "address",
          "name": "approved",
          "type": "address"
        },
        {
          "indexed": true,
          "internalType": "uint256",
          "name": "tokenId",
          "type": "uint256"
        }
      ],
      "name": "Approval",
      "type": "event"
    },
    {
      "anonymous": false,
      "inputs": [
        {
          "indexed": true,
          "internalType": "address",
          "name": "owner",
          "type": "address"
        },
        {
          "indexed": true,
          "internalType": "address",
          "name": "operator",
          "type": "address"
        },
        {
          "indexed": false,
          "internalType": "bool",
          "name": "approved",
          "type": "bool"
        }
      ],
      "name": "ApprovalForAll",
      "type": "event"
    },
    {
      "anonymous": false,
      "inputs": [
        {
          "indexed": false,
          "internalType": "address",
          "name": "underlyingCollection",
          "type": "address"
        },
        {
          "indexed": false,
          "internalType": "uint256",
          "name": "underlyingTokenId",
          "type": "uint256"
        },
        {
          "indexed": false,
          "internalType": "address",
          "name": "derivedCollection",
          "type": "address"
        },
        {
          "indexed": false,
          "internalType": "uint256",
          "name": "derivedTokenId",
          "type": "uint256"
        },
        {
          "indexed": false,
          "internalType": "uint256",
          "name": "startTime",
          "type": "uint256"
        },
        {
          "indexed": false,
          "internalType": "uint256",
          "name": "endTime",
          "type": "uint256"
        }
      ],
      "name": "Derive",
      "type": "event"
    },
    {
      "anonymous": false,
      "inputs": [
        {
          "indexed": false,
          "internalType": "address",
          "name": "underlyingCollection",
          "type": "address"
        },
        {
          "indexed": false,
          "internalType": "uint256",
          "name": "underlyingTokenId",
          "type": "uint256"
        },
        {
          "indexed": false,
          "internalType": "address",
          "name": "derivedCollection",
          "type": "address"
        },
        {
          "indexed": false,
          "internalType": "uint256",
          "name": "derivedTokenId",
          "type": "uint256"
        },
        {
          "indexed": false,
          "internalType": "uint256",
          "name": "startTime",
          "type": "uint256"
        },
        {
          "indexed": false,
          "internalType": "uint256",
          "name": "endTime",
          "type": "uint256"
        },
        {
          "indexed": false,
          "internalType": "bytes32[]",
          "name": "keyHashes",
          "type": "bytes32[]"
        }
      ],
      "name": "DeriveByKeys",
      "type": "event"
    },
    {
      "anonymous": false,
      "inputs": [
        {
          "indexed": false,
          "internalType": "uint8",
          "name": "version",
          "type": "uint8"
        }
      ],
      "name": "Initialized",
      "type": "event"
    },
    {
      "anonymous": false,
      "inputs": [
        {
          "indexed": true,
          "internalType": "bytes32",
          "name": "role",
          "type": "bytes32"
        },
        {
          "indexed": true,
          "internalType": "bytes32",
          "name": "previousAdminRole",
          "type": "bytes32"
        },
        {
          "indexed": true,
          "internalType": "bytes32",
          "name": "newAdminRole",
          "type": "bytes32"
        }
      ],
      "name": "RoleAdminChanged",
      "type": "event"
    },
    {
      "anonymous": false,
      "inputs": [
        {
          "indexed": true,
          "internalType": "bytes32",
          "name": "role",
          "type": "bytes32"
        },
        {
          "indexed": true,
          "internalType": "address",
          "name": "account",
          "type": "address"
        },
        {
          "indexed": true,
          "internalType": "address",
          "name": "sender",
          "type": "address"
        }
      ],
      "name": "RoleGranted",
      "type": "event"
    },
    {
      "anonymous": false,
      "inputs": [
        {
          "indexed": true,
          "internalType": "bytes32",
          "name": "role",
          "type": "bytes32"
        },
        {
          "indexed": true,
          "internalType": "address",
          "name": "account",
          "type": "address"
        },
        {
          "indexed": true,
          "internalType": "address",
          "name": "sender",
          "type": "address"
        }
      ],
      "name": "RoleRevoked",
      "type": "event"
    },
    {
      "anonymous": false,
      "inputs": [
        {
          "indexed": true,
          "internalType": "address",
          "name": "from",
          "type": "address"
        },
        {
          "indexed": true,
          "internalType": "address",
          "name": "to",
          "type": "address"
        },
        {
          "indexed": true,
          "internalType": "uint256",
          "name": "tokenId",
          "type": "uint256"
        }
      ],
      "name": "Transfer",
      "type": "event"
    },
    {
      "anonymous": false,
      "inputs": [
        {
          "indexed": false,
          "internalType": "string",
          "name": "uri",
          "type": "string"
        }
      ],
      "name": "URIUpdated",
      "type": "event"
    },
    {
      "anonymous": false,
      "inputs": [
        {
          "indexed": false,
          "internalType": "address",
          "name": "collection",
          "type": "address"
        },
        {
          "indexed": false,
          "internalType": "uint256",
          "name": "startId",
          "type": "uint256"
        },
        {
          "indexed": false,
          "internalType": "uint256",
          "name": "endId",
          "type": "uint256"
        },
        {
          "indexed": false,
          "internalType": "bytes32",
          "name": "key",
          "type": "bytes32"
        },
        {
          "indexed": false,
          "internalType": "bytes",
          "name": "value",
          "type": "bytes"
        }
      ],
      "name": "WriteBatch",
      "type": "event"
    },
    {
      "inputs": [],
      "name": "DEFAULT_ADMIN_ROLE",
      "outputs": [
        {
          "internalType": "bytes32",
          "name": "",
          "type": "bytes32"
        }
      ],
      "stateMutability": "view",
      "type": "function"
    },
    {
      "inputs": [],
      "name": "WILDCARD_KEY",
      "outputs": [
        {
          "internalType": "bytes32",
          "name": "",
          "type": "bytes32"
        }
      ],
      "stateMutability": "view",
      "type": "function"
    },
    {
      "inputs": [],
      "name": "WRITER_ROLE",
      "outputs": [
        {
          "internalType": "bytes32",
          "name": "",
          "type": "bytes32"
        }
      ],
      "stateMutability": "view",
      "type": "function"
    },
    {
      "inputs": [
        {
          "internalType": "address",
          "name": "to",
          "type": "address"
        },
        {
          "internalType": "uint256",
          "name": "tokenId",
          "type": "uint256"
        }
      ],
      "name": "approve",
      "outputs": [],
      "stateMutability": "nonpayable",
      "type": "function"
    },
    {
      "inputs": [
        {
          "internalType": "address",
          "name": "owner",
          "type": "address"
        }
      ],
      "name": "balanceOf",
      "outputs": [
        {
          "internalType": "uint256",
          "name": "",
          "type": "uint256"
        }
      ],
      "stateMutability": "view",
      "type": "function"
    },
    {
      "inputs": [
        {
          "internalType": "uint256",
          "name": "tokenId",
          "type": "uint256"
        }
      ],
      "name": "burn",
      "outputs": [],
      "stateMutability": "nonpayable",
      "type": "function"
    },
    {
      "inputs": [],
      "name": "dapp",
      "outputs": [
        {
          "internalType": "address",
          "name": "",
          "type": "address"
        }
      ],
      "stateMutability": "view",
      "type": "function"
    },
    {
      "inputs": [
        {
          "internalType": "address",
          "name": "underlyingCollection",
          "type": "address"
        },
        {
          "internalType": "uint256",
          "name": "underlyingTokenId",
          "type": "uint256"
        },
        {
          "internalType": "uint256",
          "name": "startTime",
          "type": "uint256"
        },
        {
          "internalType": "uint256",
          "name": "endTime",
          "type": "uint256"
        },
        {
          "internalType": "uint256",
          "name": "royaltyRate",
          "type": "uint256"
        }
      ],
      "name": "derive",
      "outputs": [
        {
          "internalType": "uint256",
          "name": "",
          "type": "uint256"
        }
      ],
      "stateMutability": "payable",
      "type": "function"
    },
    {
      "inputs": [
        {
          "internalType": "address",
          "name": "underlyingCollection",
          "type": "address"
        },
        {
          "internalType": "uint256",
          "name": "underlyingTokenId",
          "type": "uint256"
        },
        {
          "internalType": "uint256",
          "name": "startTime",
          "type": "uint256"
        },
        {
          "internalType": "uint256",
          "name": "endTime",
          "type": "uint256"
        },
        {
          "internalType": "uint256",
          "name": "royaltyRate",
          "type": "uint256"
        },
        {
          "internalType": "bytes32[]",
          "name": "keyHashes",
          "type": "bytes32[]"
        }
      ],
      "name": "deriveByKeys",
      "outputs": [
        {
          "internalType": "uint256",
          "name": "tokenId",
          "type": "uint256"
        }
      ],
      "stateMutability": "payable",
      "type": "function"
    },
    {
      "inputs": [
        {
          "internalType": "address",
          "name": "underlyingCollection",
          "type": "address"
        },
        {
          "internalType": "uint256",
          "name": "underlyingTokenId",
          "type": "uint256"
        },
        {
          "internalType": "bytes32",
          "name": "key",
          "type": "bytes32"
        }
      ],
      "name": "derivedByKeyOf",
      "outputs": [
        {
          "components": [
            {
              "internalType": "address",
              "name": "collection",
              "type": "address"
            },
            {
              "internalType": "uint256",
              "name": "tokenId",
              "type": "uint256"
            },
            {
              "internalType": "uint256",
              "name": "startTime",
              "type": "uint256"
            },
            {
              "internalType": "uint256",
              "name": "endTime",
              "type": "uint256"
            }
          ],
          "internalType": "struct DerivedToken",
          "name": "derived",
          "type": "tuple"
        }
      ],
      "stateMutability": "view",
      "type": "function"
    },
    {
      "inputs": [
        {
          "internalType": "address",
          "name": "underlyingCollection",
          "type": "address"
        },
        {
          "internalType": "uint256",
          "name": "underlyingTokenId",
          "type": "uint256"
        }
      ],
      "name": "derivedOf",
      "outputs": [
        {
          "components": [
            {
              "internalType": "address",
              "name": "collection",
              "type": "address"
            },
            {
              "internalType": "uint256",
              "name": "tokenId",
              "type": "uint256"
            },
            {
              "internalType": "uint256",
              "name": "startTime",
              "type": "uint256"
            },
            {
              "internalType": "uint256",
              "name": "endTime",
              "type": "uint256"
            }
          ],
          "internalType": "struct DerivedToken",
          "name": "derived",
          "type": "tuple"
        }
      ],
      "stateMutability": "view",
      "type": "function"
    },
    {
      "inputs": [],
      "name": "disableComposable",
      "outputs": [
        {
          "internalType": "bool",
          "name": "",
          "type": "bool"
        }
      ],
      "stateMutability": "view",
      "type": "function"
    },
    {
      "inputs": [],
      "name": "disableDerivable",
      "outputs": [
        {
          "internalType": "bool",
          "name": "",
          "type": "bool"
        }
      ],
      "stateMutability": "view",
      "type": "function"
    },
    {
      "inputs": [],
      "name": "factory",
      "outputs": [
        {
          "internalType": "address",
          "name": "",
          "type": "address"
        }
      ],
      "stateMutability": "view",
      "type": "function"
    },
    {
      "inputs": [
        {
          "internalType": "uint256",
          "name": "tokenId",
          "type": "uint256"
        }
      ],
      "name": "getApproved",
      "outputs": [
        {
          "internalType": "address",
          "name": "",
          "type": "address"
        }
      ],
      "stateMutability": "view",
      "type": "function"
    },
    {
      "inputs": [
        {
          "internalType": "bytes32",
          "name": "role",
          "type": "bytes32"
        }
      ],
      "name": "getRoleAdmin",
      "outputs": [
        {
          "internalType": "bytes32",
          "name": "",
          "type": "bytes32"
        }
      ],
      "stateMutability": "view",
      "type": "function"
    },
    {
      "inputs": [
        {
          "internalType": "bytes32",
          "name": "role",
          "type": "bytes32"
        },
        {
          "internalType": "address",
          "name": "account",
          "type": "address"
        }
      ],
      "name": "grantRole",
      "outputs": [],
      "stateMutability": "nonpayable",
      "type": "function"
    },
    {
      "inputs": [
        {
          "internalType": "bytes32",
          "name": "role",
          "type": "bytes32"
        },
        {
          "internalType": "address",
          "name": "account",
          "type": "address"
        }
      ],
      "name": "hasRole",
      "outputs": [
        {
          "internalType": "bool",
          "name": "",
          "type": "bool"
        }
      ],
      "stateMutability": "view",
      "type": "function"
    },
    {
      "inputs": [
        {
          "internalType": "address",
          "name": "_dapp",
          "type": "address"
        },
        {
          "internalType": "address",
          "name": "_factory",
          "type": "address"
        },
        {
          "internalType": "string",
          "name": "_uri",
          "type": "string"
        },
        {
          "components": [
            {
              "internalType": "bool",
              "name": "disableComposable",
              "type": "bool"
            },
            {
              "internalType": "bool",
              "name": "disableDerivable",
              "type": "bool"
            }
          ],
          "internalType": "struct DataRegistrySettings",
          "name": "settings",
          "type": "tuple"
        }
      ],
      "name": "initialize",
      "outputs": [],
      "stateMutability": "nonpayable",
      "type": "function"
    },
    {
      "inputs": [
        {
          "internalType": "address",
          "name": "owner",
          "type": "address"
        },
        {
          "internalType": "address",
          "name": "operator",
          "type": "address"
        }
      ],
      "name": "isApprovedForAll",
      "outputs": [
        {
          "internalType": "bool",
          "name": "",
          "type": "bool"
        }
      ],
      "stateMutability": "view",
      "type": "function"
    },
    {
      "inputs": [
        {
          "internalType": "address",
          "name": "collection",
          "type": "address"
        },
        {
          "internalType": "uint256",
          "name": "tokenId",
          "type": "uint256"
        }
      ],
      "name": "isDerivable",
      "outputs": [
        {
          "internalType": "bool",
          "name": "",
          "type": "bool"
        }
      ],
      "stateMutability": "view",
      "type": "function"
    },
    {
      "inputs": [
        {
          "internalType": "address",
          "name": "collection",
          "type": "address"
        },
        {
          "internalType": "uint256",
          "name": "tokenId",
          "type": "uint256"
        },
        {
          "internalType": "bytes32",
          "name": "key",
          "type": "bytes32"
        }
      ],
      "name": "isDerivableByKey",
      "outputs": [
        {
          "internalType": "bool",
          "name": "",
          "type": "bool"
        }
      ],
      "stateMutability": "view",
      "type": "function"
    },
    {
      "inputs": [
        {
          "internalType": "address",
          "name": "collection",
          "type": "address"
        },
        {
          "internalType": "uint256",
          "name": "tokenId",
          "type": "uint256"
        }
      ],
      "name": "isUsable",
      "outputs": [
        {
          "internalType": "bool",
          "name": "",
          "type": "bool"
        }
      ],
      "stateMutability": "view",
      "type": "function"
    },
    {
      "inputs": [
        {
          "internalType": "address",
          "name": "collection",
          "type": "address"
        },
        {
          "internalType": "uint256",
          "name": "tokenId",
          "type": "uint256"
        },
        {
          "internalType": "bytes32",
          "name": "key",
          "type": "bytes32"
        }
      ],
      "name": "isUsableByKey",
      "outputs": [
        {
          "internalType": "bool",
          "name": "",
          "type": "bool"
        }
      ],
      "stateMutability": "view",
      "type": "function"
    },
    {
      "inputs": [],
      "name": "name",
      "outputs": [
        {
          "internalType": "string",
          "name": "",
          "type": "string"
        }
      ],
      "stateMutability": "view",
      "type": "function"
    },
    {
      "inputs": [
        {
          "internalType": "address",
          "name": "operator",
          "type": "address"
        },
        {
          "internalType": "address",
          "name": "from",
          "type": "address"
        },
        {
          "internalType": "uint256",
          "name": "tokenId",
          "type": "uint256"
        },
        {
          "internalType": "bytes",
          "name": "data",
          "type": "bytes"
        }
      ],
      "name": "onERC721Received",
      "outputs": [
        {
          "internalType": "bytes4",
          "name": "",
          "type": "bytes4"
        }
      ],
      "stateMutability": "pure",
      "type": "function"
    },
    {
      "inputs": [
        {
          "internalType": "uint256",
          "name": "tokenId",
          "type": "uint256"
        }
      ],
      "name": "ownerOf",
      "outputs": [
        {
          "internalType": "address",
          "name": "",
          "type": "address"
        }
      ],
      "stateMutability": "view",
      "type": "function"
    },
    {
      "inputs": [
        {
          "internalType": "address",
          "name": "collection",
          "type": "address"
        },
        {
          "internalType": "uint256",
          "name": "tokenId",
          "type": "uint256"
        },
        {
          "internalType": "bytes32",
          "name": "key",
          "type": "bytes32"
        }
      ],
      "name": "read",
      "outputs": [
        {
          "internalType": "bytes",
          "name": "value",
          "type": "bytes"
        }
      ],
      "stateMutability": "view",
      "type": "function"
    },
    {
      "inputs": [
        {
          "internalType": "bytes32",
          "name": "role",
          "type": "bytes32"
        },
        {
          "internalType": "address",
          "name": "account",
          "type": "address"
        }
      ],
      "name": "renounceRole",
      "outputs": [],
      "stateMutability": "nonpayable",
      "type": "function"
    },
    {
      "inputs": [
        {
          "internalType": "bytes32",
          "name": "role",
          "type": "bytes32"
        },
        {
          "internalType": "address",
          "name": "account",
          "type": "address"
        }
      ],
      "name": "revokeRole",
      "outputs": [],
      "stateMutability": "nonpayable",
      "type": "function"
    },
    {
      "inputs": [
        {
          "internalType": "uint256",
          "name": "tokenId",
          "type": "uint256"
        },
        {
          "internalType": "uint256",
          "name": "salePrice",
          "type": "uint256"
        }
      ],
      "name": "royaltyInfo",
      "outputs": [
        {
          "internalType": "address",
          "name": "receiver",
          "type": "address"
        },
        {
          "internalType": "uint256",
          "name": "royaltyAmount",
          "type": "uint256"
        }
      ],
      "stateMutability": "view",
      "type": "function"
    },
    {
      "inputs": [
        {
          "internalType": "address",
          "name": "from",
          "type": "address"
        },
        {
          "internalType": "address",
          "name": "to",
          "type": "address"
        },
        {
          "internalType": "uint256",
          "name": "tokenId",
          "type": "uint256"
        }
      ],
      "name": "safeTransferFrom",
      "outputs": [],
      "stateMutability": "nonpayable",
      "type": "function"
    },
    {
      "inputs": [
        {
          "internalType": "address",
          "name": "from",
          "type": "address"
        },
        {
          "internalType": "address",
          "name": "to",
          "type": "address"
        },
        {
          "internalType": "uint256",
          "name": "tokenId",
          "type": "uint256"
        },
        {
          "internalType": "bytes",
          "name": "data",
          "type": "bytes"
        }
      ],
      "name": "safeTransferFrom",
      "outputs": [],
      "stateMutability": "nonpayable",
      "type": "function"
    },
    {
      "inputs": [
        {
          "internalType": "address",
          "name": "operator",
          "type": "address"
        },
        {
          "internalType": "bool",
          "name": "approved",
          "type": "bool"
        }
      ],
      "name": "setApprovalForAll",
      "outputs": [],
      "stateMutability": "nonpayable",
      "type": "function"
    },
    {
      "inputs": [
        {
          "internalType": "bytes4",
          "name": "interfaceId",
          "type": "bytes4"
        }
      ],
      "name": "supportsInterface",
      "outputs": [
        {
          "internalType": "bool",
          "name": "",
          "type": "bool"
        }
      ],
      "stateMutability": "view",
      "type": "function"
    },
    {
      "inputs": [],
      "name": "symbol",
      "outputs": [
        {
          "internalType": "string",
          "name": "",
          "type": "string"
        }
      ],
      "stateMutability": "view",
      "type": "function"
    },
    {
      "inputs": [
        {
          "internalType": "bytes32",
          "name": "key",
          "type": "bytes32"
        },
        {
          "internalType": "address",
          "name": "collection",
          "type": "address"
        }
      ],
      "name": "tipOfKeyOnCollection",
      "outputs": [
        {
          "internalType": "uint256",
          "name": "",
          "type": "uint256"
        }
      ],
      "stateMutability": "view",
      "type": "function"
    },
    {
      "inputs": [
        {
          "internalType": "uint256",
          "name": "tokenId",
          "type": "uint256"
        }
      ],
      "name": "tokenURI",
      "outputs": [
        {
          "internalType": "string",
          "name": "",
          "type": "string"
        }
      ],
      "stateMutability": "view",
      "type": "function"
    },
    {
      "inputs": [
        {
          "internalType": "address",
          "name": "from",
          "type": "address"
        },
        {
          "internalType": "address",
          "name": "to",
          "type": "address"
        },
        {
          "internalType": "uint256",
          "name": "tokenId",
          "type": "uint256"
        }
      ],
      "name": "transferFrom",
      "outputs": [],
      "stateMutability": "nonpayable",
      "type": "function"
    },
    {
      "inputs": [
        {
          "internalType": "uint256",
          "name": "derivedTokenId",
          "type": "uint256"
        }
      ],
      "name": "underlyingOf",
      "outputs": [
        {
          "internalType": "address",
          "name": "",
          "type": "address"
        },
        {
          "internalType": "uint256",
          "name": "",
          "type": "uint256"
        }
      ],
      "stateMutability": "view",
      "type": "function"
    },
    {
      "inputs": [
        {
          "internalType": "string",
          "name": "_uri",
          "type": "string"
        }
      ],
      "name": "updateUri",
      "outputs": [],
      "stateMutability": "nonpayable",
      "type": "function"
    },
    {
      "inputs": [],
      "name": "uri",
      "outputs": [
        {
          "internalType": "string",
          "name": "",
          "type": "string"
        }
      ],
      "stateMutability": "view",
      "type": "function"
    },
    {
      "inputs": [
        {
          "internalType": "address",
          "name": "collection",
          "type": "address"
        },
        {
          "internalType": "uint256",
          "name": "tokenId",
          "type": "uint256"
        },
        {
          "internalType": "bytes32",
          "name": "key",
          "type": "bytes32"
        },
        {
          "internalType": "bytes",
          "name": "value",
          "type": "bytes"
        }
      ],
      "name": "write",
      "outputs": [],
      "stateMutability": "payable",
      "type": "function"
    },
    {
      "inputs": [
        {
          "internalType": "address",
          "name": "collection",
          "type": "address"
        },
        {
          "internalType": "uint256",
          "name": "startId",
          "type": "uint256"
        },
        {
          "internalType": "uint256",
          "name": "endId",
          "type": "uint256"
        },
        {
          "internalType": "bytes32",
          "name": "key",
          "type": "bytes32"
        },
        {
          "internalType": "bytes",
          "name": "value",
          "type": "bytes"
        }
      ],
      "name": "writeBatch",
      "outputs": [],
      "stateMutability": "payable",
      "type": "function"
    },
    {
      "inputs": [
        {
          "internalType": "address",
          "name": "collection",
          "type": "address"
        },
        {
          "internalType": "uint256",
          "name": "tokenId",
          "type": "uint256"
        },
        {
          "internalType": "bytes32[]",
          "name": "keys",
          "type": "bytes32[]"
        },
        {
          "internalType": "bytes[]",
          "name": "values",
          "type": "bytes[]"
        }
      ],
      "name": "writeBatchForSingleNFT",
      "outputs": [],
      "stateMutability": "payable",
      "type": "function"
    }
  ],
  "bytecode": "0x608060405234801561001057600080fd5b50614d4e806100206000396000f3fe6080604052600436106102725760003560e01c80638298986f1161014f578063c45a0155116100c1578063e985e9c51161007a578063e985e9c5146107f1578063eabd0a011461083a578063eac989f81461085a578063edb4ca621461086f578063fd1dc4db14610882578063fd311d9d146108a157600080fd5b8063c45a01551461074b578063c87b56dd1461076b578063ce0ce7341461078b578063ce69860c1461079e578063d1952d85146107be578063d547741f146107d157600080fd5b8063a22cb46511610113578063a22cb46514610690578063ab96fd92146106b0578063b6de460a146106d2578063b88d4fde146106f2578063bb12a8c614610712578063bcb19d541461073257600080fd5b80638298986f146105c857806391d148541461062457806395d89b41146106445780639beaab7b14610659578063a217fddf1461067b57600080fd5b806336568abe116101e8578063523f5fed116101ac578063523f5fed1461051557806354d0b3f314610535578063570b3c6a146105555780635f2a5f8c146105755780636352211e1461058857806370a08231146105a857600080fd5b806336568abe1461045e5780633b4c44121461047e57806342842e0e146104c257806342966c68146104e25780634e44ad451461050257600080fd5b8063150b7a021161023a578063150b7a0214610367578063208acf9a146103a057806323b872dd146103c0578063248a9ca3146103e05780632a55205a1461041e5780632f2ff15d1461043e57600080fd5b806301ffc9a71461027757806306fdde03146102ac578063081812fc146102ce578063095ea7b31461030657806311174c6814610328575b600080fd5b34801561028357600080fd5b50610297610292366004613eac565b6108c1565b60405190151581526020015b60405180910390f35b3480156102b857600080fd5b506102c1610923565b6040516102a39190613f19565b3480156102da57600080fd5b506102ee6102e9366004613f2c565b6109b5565b6040516001600160a01b0390911681526020016102a3565b34801561031257600080fd5b50610326610321366004613f5a565b6109dc565b005b34801561033457600080fd5b50610348610343366004613f2c565b610af6565b604080516001600160a01b0390931683526020830191909152016102a3565b34801561037357600080fd5b50610387610382366004613fc7565b610b49565b6040516001600160e01b031990911681526020016102a3565b3480156103ac57600080fd5b506102c16103bb366004614039565b610b5b565b3480156103cc57600080fd5b506103266103db36600461406e565b610bc9565b3480156103ec57600080fd5b506104106103fb366004613f2c565b60009081526065602052604090206001015490565b6040519081526020016102a3565b34801561042a57600080fd5b506103486104393660046140af565b610bfa565b34801561044a57600080fd5b506103266104593660046140d1565b610d23565b34801561046a57600080fd5b506103266104793660046140d1565b610d48565b34801561048a57600080fd5b506104106104993660046140d1565b6000918252610102602090815260408084206001600160a01b0393909316845291905290205490565b3480156104ce57600080fd5b506103266104dd36600461406e565b610dc6565b3480156104ee57600080fd5b506103266104fd366004613f2c565b610de1565b610410610510366004614101565b610e56565b34801561052157600080fd5b50610297610530366004613f5a565b610f7d565b34801561054157600080fd5b50610297610550366004614039565b610fc1565b34801561056157600080fd5b50610326610570366004614145565b61101d565b610326610583366004614186565b611074565b34801561059457600080fd5b506102ee6105a3366004613f2c565b611179565b3480156105b457600080fd5b506104106105c33660046141d2565b6111d9565b3480156105d457600080fd5b506105e86105e3366004613f5a565b61125f565b6040516102a3919081516001600160a01b0316815260208083015190820152604080830151908201526060918201519181019190915260800190565b34801561063057600080fd5b5061029761063f3660046140d1565b6112cd565b34801561065057600080fd5b506102c16112f8565b34801561066557600080fd5b50610410600080516020614cf983398151915281565b34801561068757600080fd5b50610410600081565b34801561069c57600080fd5b506103266106ab366004614204565b611307565b3480156106bc57600080fd5b50610410600080516020614cd983398151915281565b3480156106de57600080fd5b5060fc546102ee906001600160a01b031681565b3480156106fe57600080fd5b5061032661070d36600461424f565b611312565b34801561071e57600080fd5b5061032661072d36600461432e565b61134a565b34801561073e57600080fd5b5060ff8054610297911681565b34801561075757600080fd5b5060fb546102ee906001600160a01b031681565b34801561077757600080fd5b506102c1610786366004613f2c565b611552565b6103266107993660046143f6565b6115c5565b3480156107aa57600080fd5b506105e86107b9366004614039565b61180a565b6103266107cc366004614481565b61186a565b3480156107dd57600080fd5b506103266107ec3660046140d1565b611bac565b3480156107fd57600080fd5b5061029761080c3660046144e1565b6001600160a01b039182166000908152609c6020908152604080832093909416825291909152205460ff1690565b34801561084657600080fd5b50610297610855366004614039565b611bd1565b34801561086657600080fd5b506102c1611c07565b61041061087d36600461450f565b611c95565b34801561088e57600080fd5b5060ff8054610297916101009091041681565b3480156108ad57600080fd5b506102976108bc366004613f5a565b611d46565b60006108cc82611db0565b806108e757506001600160e01b0319821663152a902d60e11b145b8061090257506001600160e01b0319821663ae35bd9360e01b145b8061091d57506001600160e01b031982166377bae75760e11b145b92915050565b6060609780546109329061458b565b80601f016020809104026020016040519081016040528092919081815260200182805461095e9061458b565b80156109ab5780601f10610980576101008083540402835291602001916109ab565b820191906000526020600020905b81548152906001019060200180831161098e57829003601f168201915b5050505050905090565b60006109c082611df0565b506000908152609b60205260409020546001600160a01b031690565b60006109e782611179565b9050806001600160a01b0316836001600160a01b031603610a595760405162461bcd60e51b815260206004820152602160248201527f4552433732313a20617070726f76616c20746f2063757272656e74206f776e656044820152603960f91b60648201526084015b60405180910390fd5b336001600160a01b0382161480610a755750610a75813361080c565b610ae75760405162461bcd60e51b815260206004820152603d60248201527f4552433732313a20617070726f76652063616c6c6572206973206e6f7420746f60448201527f6b656e206f776e6572206f7220617070726f76656420666f7220616c6c0000006064820152608401610a50565b610af18383611e4f565b505050565b60ff8054600091829161010090041615610b225760405162461bcd60e51b8152600401610a50906145c5565b505060009081526101056020526040902080546001909101546001600160a01b0390911691565b630a85bd0160e11b5b95945050505050565b6060306001600160a01b03851603610bb45760008381526101056020908152604091829020825180840190935280546001600160a01b0316808452600190910154918301829052610bac9185611ebd565b915050610bc2565b610bbf848484611ebd565b90505b9392505050565b610bd33382612012565b610bef5760405162461bcd60e51b8152600401610a50906145fc565b610af1838383612091565b6000828152610105602052604081205481906001600160a01b0316610c615760405162461bcd60e51b815260206004820152601b60248201527f4465726976656420746f6b656e204d5553542062652076616c696400000000006044820152606401610a50565b6000848152610107602052604090205461271090610c7f908561465f565b610c899190614676565b60fb54600086815261010560205260409081902080546001909101549151635ca2cfb760e01b81526001600160a01b0391821660048201526024810192909252929350911690635ca2cfb790604401602060405180830381865afa158015610cf5573d6000803e3d6000fd5b505050506040513d601f19601f82011682018060405250810190610d199190614698565b91505b9250929050565b600082815260656020526040902060010154610d3e816121f5565b610af183836121ff565b6001600160a01b0381163314610db85760405162461bcd60e51b815260206004820152602f60248201527f416363657373436f6e74726f6c3a2063616e206f6e6c792072656e6f756e636560448201526e103937b632b9903337b91039b2b63360891b6064820152608401610a50565b610dc28282612285565b5050565b610af183838360405180602001604052806000815250611312565b610dea81611179565b6001600160a01b0316336001600160a01b031614610e4a5760405162461bcd60e51b815260206004820152601d60248201527f53656e646572204d555354206265206f776e6572206f6620746f6b656e0000006044820152606401610a50565b610e53816122ec565b50565b60ff80546000916101009091041615610e815760405162461bcd60e51b8152600401610a50906145c5565b610e89612381565b6001600160a01b038616610eaf5760405162461bcd60e51b8152600401610a50906146b5565b60408051600180825281830190925260009160208083019080368337019050509050600080516020614cd983398151915281600081518110610ef357610ef36146ec565b6020026020010181815250506000610f0f8888888888876123da565b604080516001600160a01b038b168152602081018a90523081830152606081018390526080810189905260a0810188905290519192507fc5f49455178b9bb95e48f650a60b0eb9d160d02d31f19c24adc741803e4ddedf919081900360c00190a1915050610b52600160c955565b60ff80546000916101009091041615610fa85760405162461bcd60e51b8152600401610a50906145c5565b610bc28383600080516020614cd9833981519152612597565b60ff80546000916101009091041615610fec5760405162461bcd60e51b8152600401610a50906145c5565b6001600160a01b0384166110125760405162461bcd60e51b8152600401610a50906146b5565b610bbf8484846126da565b6000611028816121f5565b60fd611035838583614748565b507fe3afa94108b5f5e82e5f6e539d161ff4b5402a85f696c67b9768ec3ae54ce3668383604051611067929190614808565b60405180910390a1505050565b600080516020614cf983398151915261108c816121f5565b6001600160a01b0386166110b25760405162461bcd60e51b8152600401610a50906146b5565b6110bd8686866126da565b6110d95760405162461bcd60e51b8152600401610a5090614837565b306001600160a01b0387160361112f5761112a858585858080601f01602080910402602001604051908101604052809392919081815260200183838082843760009201919091525061299392505050565b611171565b61117186868686868080601f0160208091040260200160405190810160405280939291908181526020018383808284376000920191909152506129cf92505050565b505050505050565b6000818152609960205260408120546001600160a01b03168061091d5760405162461bcd60e51b8152602060048201526018602482015277115490cdcc8c4e881a5b9d985b1a59081d1bdad95b88125160421b6044820152606401610a50565b60006001600160a01b0382166112435760405162461bcd60e51b815260206004820152602960248201527f4552433732313a2061646472657373207a65726f206973206e6f7420612076616044820152683634b21037bbb732b960b91b6064820152608401610a50565b506001600160a01b03166000908152609a602052604090205490565b611267613e65565b60ff80546101009004161561128e5760405162461bcd60e51b8152600401610a50906145c5565b6001600160a01b0383166112b45760405162461bcd60e51b8152600401610a50906146b5565b610bc28383600080516020614cd9833981519152612df8565b60009182526065602090815260408084206001600160a01b0393909316845291905290205460ff1690565b6060609880546109329061458b565b610dc2338383612eff565b61131c3383612012565b6113385760405162461bcd60e51b8152600401610a50906145fc565b61134484848484612fcd565b50505050565b600054610100900460ff161580801561136a5750600054600160ff909116105b806113845750303b158015611384575060005460ff166001145b6113e75760405162461bcd60e51b815260206004820152602e60248201527f496e697469616c697a61626c653a20636f6e747261637420697320616c72656160448201526d191e481a5b9a5d1a585b1a5e995960921b6064820152608401610a50565b6000805460ff19166001179055801561140a576000805461ff0019166101001790555b6114596040518060400160405280600f81526020016e4e4654322e3020526567697374727960881b8152506040518060400160405280600681526020016504e4654322e360d41b815250613000565b60fb80546001600160a01b038088166001600160a01b03199283161790925560fc80549289169290911691909117905560fd611496848683614748565b50600160fe556114a96020830183614879565b60ff805460ff19169115159190911790556114ca6040830160208401614879565b60ff80549115156101000261ff00199092169190911790556114ed6000876121ff565b611505600080516020614cf9833981519152876121ff565b8015611171576000805461ff0019169055604051600181527f7f26b83ff96e1f2b6a682f133852f6798a09c465da95921460cefb38474024989060200160405180910390a1505050505050565b606061155d82611df0565b600061157460408051602081019091526000815290565b905060008151116115945760405180602001604052806000815250610bc2565b8061159e84613031565b6040516020016115af929190614894565b6040516020818303038152906040529392505050565b600080516020614cf98339815191526115dd816121f5565b6001600160a01b0387166116035760405162461bcd60e51b8152600401610a50906146b5565b8382146116655760405162461bcd60e51b815260206004820152602a60248201527f4b65797320616e642076616c756573204d5553542062652073616d65206c656e6044820152696774682061727261797360b01b6064820152608401610a50565b60005b60ff81168511156116c757611699888888888560ff1681811061168d5761168d6146ec565b905060200201356126da565b6116b55760405162461bcd60e51b8152600401610a5090614837565b806116bf816148c3565b915050611668565b5060005b60ff811685111561180057306001600160a01b0389160361176c576117678787878460ff168181106116ff576116ff6146ec565b9050602002013586868560ff1681811061171b5761171b6146ec565b905060200281019061172d91906148e2565b8080601f01602080910402602001604051908101604052809392919081815260200183838082843760009201919091525061299392505050565b6117ee565b6117ee888888888560ff16818110611786576117866146ec565b9050602002013587878660ff168181106117a2576117a26146ec565b90506020028101906117b491906148e2565b8080601f0160208091040260200160405190810160405280939291908181526020018383808284376000920191909152506129cf92505050565b806117f8816148c3565b9150506116cb565b5050505050505050565b611812613e65565b60ff8054610100900416156118395760405162461bcd60e51b8152600401610a50906145c5565b6001600160a01b03841661185f5760405162461bcd60e51b8152600401610a50906146b5565b610bbf848484612df8565b600080516020614cf9833981519152611882816121f5565b6001600160a01b0387166118a85760405162461bcd60e51b8152600401610a50906146b5565b848611156118f85760405162461bcd60e51b815260206004820152601c60248201527f537461727420616e6420456e64204d5553542062652070726f706572000000006044820152606401610a50565b306001600160a01b038816036119635760405162461bcd60e51b815260206004820152602a60248201527f4f6e6c7920756e6465726c79696e6720746f6b656e2063616e206265207772696044820152690e8e8cadc40c4c2e8c6d60b31b6064820152608401610a50565b6000848152610100602090815260408083206001600160a01b038b16845282528083208884528252808320898452909152812080546119a19061458b565b905011156119f1576119ec8787878787878080601f0160208091040260200160405190810160405280939291908181526020018383808284376000920191909152506130c392505050565b611ba3565b85600003611ab5576000848152610102602090815260408083206001600160a01b038b168452909152902054158015611a6457506000848152610100602090815260408083206001600160a01b038b1684528252808320838052825280832090915290208054611a609061458b565b1590505b611ab05760405162461bcd60e51b815260206004820152601c60248201527f52616e6765204d555354206e6f74206265206f7665726c6170706564000000006044820152606401610a50565b611b27565b6000848152610102602090815260408083206001600160a01b038b1684529091529020548611611b275760405162461bcd60e51b815260206004820152601c60248201527f52616e6765204d555354206e6f74206265206f7665726c6170706564000000006044820152606401610a50565b611b6a8787878787878080601f0160208091040260200160405190810160405280939291908181526020018383808284376000920191909152506130c392505050565b6000848152610101602090815260408083206001600160a01b038b16845282528083208884529091529020869055611ba3848887613147565b50505050505050565b600082815260656020526040902060010154611bc7816121f5565b610af18383612285565b60ff80546000916101009091041615611bfc5760405162461bcd60e51b8152600401610a50906145c5565b610bbf848484612597565b60fd8054611c149061458b565b80601f0160208091040260200160405190810160405280929190818152602001828054611c409061458b565b8015611c8d5780601f10611c6257610100808354040283529160200191611c8d565b820191906000526020600020905b815481529060010190602001808311611c7057829003601f168201915b505050505081565b60ff80546000916101009091041615611cc05760405162461bcd60e51b8152600401610a50906145c5565b611cc8612381565b6001600160a01b038816611cee5760405162461bcd60e51b8152600401610a50906146b5565b611d2f88888888888888808060200260200160405190810160405280939291908181526020018383602002808284376000920191909152506123da92505050565b9050611d3b600160c955565b979650505050505050565b60ff80546000916101009091041615611d715760405162461bcd60e51b8152600401610a50906145c5565b6001600160a01b038316611d975760405162461bcd60e51b8152600401610a50906146b5565b610bc28383600080516020614cd98339815191526126da565b60006001600160e01b031982166380ac58cd60e01b1480611de157506001600160e01b03198216635b5e139f60e01b145b8061091d575061091d8261322b565b6000818152609960205260409020546001600160a01b0316610e535760405162461bcd60e51b8152602060048201526018602482015277115490cdcc8c4e881a5b9d985b1a59081d1bdad95b88125160421b6044820152606401610a50565b6000818152609b6020526040902080546001600160a01b0319166001600160a01b0384169081179091558190611e8482611179565b6001600160a01b03167f8c5be1e5ebec7d5bd14f71427d1e84f3dd0314c0f7b2291e5b200ac8c7c3b92560405160405180910390a45050565b6000818152610102602090815260408083206001600160a01b0387168452909152812054606091908190611ef690859088908890613260565b9150915081611f475760405162461bcd60e51b815260206004820152601760248201527f52616e67652064617461206973206e6f7420666f756e640000000000000000006044820152606401610a50565b6000848152610100602090815260408083206001600160a01b038a168452825280832084830151845282528083208451845290915290208054611f899061458b565b80601f0160208091040260200160405190810160405280929190818152602001828054611fb59061458b565b80156120025780601f10611fd757610100808354040283529160200191612002565b820191906000526020600020905b815481529060010190602001808311611fe557829003601f168201915b5050505050925050509392505050565b60008061201e83611179565b9050806001600160a01b0316846001600160a01b0316148061206557506001600160a01b038082166000908152609c602090815260408083209388168352929052205460ff165b806120895750836001600160a01b031661207e846109b5565b6001600160a01b0316145b949350505050565b826001600160a01b03166120a482611179565b6001600160a01b0316146120ca5760405162461bcd60e51b8152600401610a5090614928565b6001600160a01b03821661212c5760405162461bcd60e51b8152602060048201526024808201527f4552433732313a207472616e7366657220746f20746865207a65726f206164646044820152637265737360e01b6064820152608401610a50565b826001600160a01b031661213f82611179565b6001600160a01b0316146121655760405162461bcd60e51b8152600401610a5090614928565b6000818152609b6020908152604080832080546001600160a01b03199081169091556001600160a01b03878116808652609a8552838620805460001901905590871680865283862080546001019055868652609990945282852080549092168417909155905184937fddf252ad1be2c89b69c2b068fc378daa952ba7f163c4a11628f55a4df523b3ef91a4505050565b610e53813361352b565b61220982826112cd565b610dc25760008281526065602090815260408083206001600160a01b03851684529091529020805460ff191660011790556122413390565b6001600160a01b0316816001600160a01b0316837f2f8788117e7eff1d82e926ec794901d17c78024a50270940304540a733656f0d60405160405180910390a45050565b61228f82826112cd565b15610dc25760008281526065602090815260408083206001600160a01b0385168085529252808320805460ff1916905551339285917ff6391f5c32d9c69d2a47ea670b442974b53935d1edc7fd64eb21e047a839171b9190a45050565b60006122f782611179565b905061230282611179565b6000838152609b6020908152604080832080546001600160a01b03199081169091556001600160a01b038516808552609a845282852080546000190190558785526099909352818420805490911690555192935084927fddf252ad1be2c89b69c2b068fc378daa952ba7f163c4a11628f55a4df523b3ef908390a45050565b600260c954036123d35760405162461bcd60e51b815260206004820152601f60248201527f5265656e7472616e637947756172643a207265656e7472616e742063616c6c006044820152606401610a50565b600260c955565b60006123ea878787878787613584565b6123f6576123f661496d565b6000612402888861382f565b909250905060005b83518160ff1610156124da576040518060800160405280306001600160a01b03168152602001848152602001888152602001878152506101046000868460ff168151811061245a5761245a6146ec565b602090810291909101810151825281810192909252604090810160009081206001600160a01b038e811683529084528282208d8352845290829020845181546001600160a01b03191692169190911781559183015160018301558201516002820155606090910151600390910155806124d2816148c3565b91505061240a565b506040805180820182526001600160a01b03808b16825260208083018b815260008781526101058352858120945185549085166001600160a01b031991821617865591516001909501949094556101068252848420805493871693909116929092179091556101079052819020859055517fe2128a67390c097ebb0686a7313da3fb5ed61ffca3c5c8a9d752c9256c1ebcb190612584908a908a90309087908c908c908b90614983565b60405180910390a1509695505050505050565b6000818152610104602090815260408083206001600160a01b03808816855290835281842086855283528184208251608081018452815490921680835260018201549483019490945260028101549282019290925260039091015460608201529061268d576001600160a01b038086166000908152600080516020614cb98339815191526020908152604080832088845282529182902082516080810184528154909416808552600182015492850192909252600281015492840192909252600390910154606083015261267057600192505050610bc2565b428160600151101561268757600192505050610bc2565b506126cf565b42816060015110156126a3576001915050610bc2565b6020818101516000908152609990915260409020546001600160a01b03166126cf576001915050610bc2565b506000949350505050565b60006126e4613e65565b306001600160a01b0386160361286757506000838152610105602090815260408083208151808301835281546001600160a01b039081168252600192830154828601908152888752610104865284872083518316885286528487209051875285529483902083516080810185528154909616865291820154938501849052600282015492850192909252600301546060840152908514801561278a575081604001514210155b801561279a575081606001514211155b156127aa57600192505050610bc2565b600080516020614cd98339815191526000908152610104602090815282516001600160a01b039081168352600080516020614cb983398151915282526040808420858401518552835292839020835160808101855281549092168252600181015492820183905260028101549382019390935260039092015460608301528614801561283a575080604001514210155b801561284a575080606001514211155b1561285b5760019350505050610bc2565b60009350505050610bc2565b506000828152610104602090815260408083206001600160a01b0380891685529083528184208785528352928190208151608081018352815490941680855260018201549385019390935260028101549184019190915260030154606083015261296f576001600160a01b038086166000908152600080516020614cb98339815191526020908152604080832088845282529182902082516080810184528154909416808552600182015492850192909252600281015492840192909252600390910154606083015261293f57600192505050610bc2565b80604001514210806129545750806060015142115b1561296457600192505050610bc2565b600092505050610bc2565b80604001514210806129845750806060015142115b156126cf576001915050610bc2565b60008381526101056020908152604091829020825180840190935280546001600160a01b03168084526001909101549183018290526113449185855b6000828152610102602090815260408083206001600160a01b03881684529091528120548190612a0490859088908890613260565b9150915081612b4157612a1a86868787876130c3565b6000848152610101602090815260408083206001600160a01b038a1680855290835281842089855283528184208990558784526101028352818420908452909152902054851115612ab9576000848152610102602090815260408083206001600160a01b038a1680855281845282852080548a8752610103865284872083885286528487208c8852865293862093909355909352919052859055611171565b6000848152610102602090815260408083206001600160a01b038a1684529091529020548503612aea575050611344565b806020015185108015612afd5750805185115b1561112a576000848152610103602090815260408083206001600160a01b038a16845282528083208483015184529091528082208790558251878352912055611171565b8051602082015103612b5a5761112a86868787876130c3565b6000848152610100602090815260408083206001600160a01b038a168452825280832084830151845282528083208451845290915281208054612b9c9061458b565b80601f0160208091040260200160405190810160405280929190818152602001828054612bc89061458b565b8015612c155780601f10612bea57610100808354040283529160200191612c15565b820191906000526020600020905b815481529060010190602001808311612bf857829003601f168201915b5050506000888152610103602090815260408083206001600160a01b038e1684528252808320888301518452909152902054929350612c5b9150899050888089896130c3565b6000868152610101602090815260408083206001600160a01b038c16845282528083208a845290915290208790558251871115612d6857612c9d600188614a04565b6000878152610103602090815260408083206001600160a01b038d16845282528083208b84529091529020558251612ce3908990612cdc60018b614a04565b89866130c3565b82516000878152610101602090815260408083206001600160a01b038d168452909152812090612d1460018b614a04565b8152602080820192909252604090810160009081209390935588835261010382528083206001600160a01b038c16845290915281208291612d5660018b614a04565b81526020810191909152604001600020555b826020015187101561180057612d8f88612d83896001614a17565b856020015189866130c3565b612d9a876001614a17565b6000878152610101602090815260408083206001600160a01b038d1680855290835281842088840180518652908452828520959095558a84526101038352818420908452825280832093518352929052208790555050505050505050565b612e00613e65565b506000818152610104602090815260408083206001600160a01b03808816855290835281842086855283529281902081516080810183528154909416808552600182015493850193909352600281015491840191909152600301546060830152610bc2576001600160a01b038085166000908152600080516020614cb98339815191526020908152604080832087845282529182902082516080810184528154909416808552600182015492850192909252600281015492840192909252600390910154606083015215801590612edb575080604001514210155b8015612eeb575080606001514211155b15612ef7579050610bc2565b509392505050565b816001600160a01b0316836001600160a01b031603612f605760405162461bcd60e51b815260206004820152601960248201527f4552433732313a20617070726f766520746f2063616c6c6572000000000000006044820152606401610a50565b6001600160a01b038381166000818152609c6020908152604080832094871680845294825291829020805460ff191686151590811790915591519182527f17307eab39ab6107e8899845ad3d59bd9653f200f220920489ca2b5937696c31910160405180910390a3505050565b612fd8848484612091565b612fe4848484846138cc565b6113445760405162461bcd60e51b8152600401610a5090614a2a565b600054610100900460ff166130275760405162461bcd60e51b8152600401610a5090614a7c565b610dc282826139cd565b6060600061303e83613a0d565b60010190506000816001600160401b0381111561305d5761305d614239565b6040519080825280601f01601f191660200182016040528015613087576020820181803683370190505b5090508181016020015b600019016f181899199a1a9b1b9c1cb0b131b232b360811b600a86061a8153600a850494508461309157509392505050565b6000828152610100602090815260408083206001600160a01b03891684528252808320868452825280832087845290915290206131008282614ac7565b507f042418a1df1049f911ff8eceaa7f94dafbe18946c463c3a6346138e759429c248585858585604051613138959493929190614b86565b60405180910390a15050505050565b6000838152610102602090815260408083206001600160a01b03861684529091529020548111156131c6576000838152610102602090815260408083206001600160a01b038616808552818452828520805489875261010386528487208388528652848720888852865293862093909355909352919052819055505050565b6000838152610102602090815260408083206001600160a01b038616845290915290205481036131f557505050565b60405162461bcd60e51b815260206004820152600b60248201526a155b9cdd5c1c1bdc9d195960aa1b6044820152606401610a50565b60006001600160e01b03198216637965db0b60e01b148061091d57506301ffc9a760e01b6001600160e01b031983161461091d565b600061327f604051806040016040528060008152602001600081525090565b6000868152610100602090815260408083206001600160a01b03891680855290835281842088855283528184208a855261010184528285209185529083528184208885528352818420548452909152812080546132db9061458b565b90501115613328575050604080518082018252600086815261010160209081528382206001600160a01b038816835281528382208683528152929020548152908101839052600190613522565b8284111561335057600060405180604001604052808581526020018681525091509150613522565b6000868152610101602090815260408083206001600160a01b03891684528252808320868452909152902054841061346d576000868152610100602090815260408083206001600160a01b03891680855290835281842087855283528184208a855261010184528285209185529083528184208785528352818420548452909152812080546133de9061458b565b9050111561342b575050604080518082018252600086815261010160209081528382206001600160a01b038816835281528382208583528152929020548152908101829052600190613522565b5050604080518082018252600086815261010360209081528382206001600160a01b038816835281528382208583528152928120548252918101839052613522565b6000868152610103602090815260408083206001600160a01b038916845282528083208684529091529020548411156134e2575050604080518082018252600086815261010360209081528382206001600160a01b038816835281528382208583528152928120548252918101839052613522565b6000868152610103602090815260408083206001600160a01b0389168452825280832086845290915290205461351d90879087908790613260565b915091505b94509492505050565b61353582826112cd565b610dc25761354281613ae5565b61354d836020613af7565b60405160200161355e929190614bb9565b60408051601f198184030181529082905262461bcd60e51b8252610a5091600401613f19565b6000306001600160a01b038816036135de5760405162461bcd60e51b815260206004820181905260248201527f4f6e6c79206f726967696e616c204e46542063616e20626520646572697665646044820152606401610a50565b336040516331a9108f60e11b8152600481018890526001600160a01b0391821691891690636352211e90602401602060405180830381865afa158015613628573d6000803e3d6000fd5b505050506040513d601f19601f8201168201806040525081019061364c9190614698565b6001600160a01b0316146136b35760405162461bcd60e51b815260206004820152602860248201527f53656e646572204d555354206265206f776e6572206f6620756e6465726c79696044820152673733903a37b5b2b760c11b6064820152608401610a50565b83851061370d5760405162461bcd60e51b815260206004820152602260248201527f53746172742074696d65204d555354206265206265666f726520456e642074696044820152616d6560f01b6064820152608401610a50565b6127108311156137795760405162461bcd60e51b815260206004820152603160248201527f54686520726f79616c74792072617465204d555354204e4f5420657863656564604482015270206c696d69742070657263656e7461676560781b6064820152608401610a50565b60005b82518160ff161015613821576137af8888858460ff16815181106137a2576137a26146ec565b6020026020010151612597565b61380f5760405162461bcd60e51b815260206004820152602b60248201527f546f6b656e204d55535420626520646572697661626c6520776974682072657160448201526a756573746564206b65797360a81b6064820152608401610a50565b80613819816148c3565b91505061377c565b506001979650505050505050565b60fb5460405163feacc7a960e01b81526001600160a01b03848116600483015260248201849052600092839291169063feacc7a9906044016020604051808303816000875af1158015613886573d6000803e3d6000fd5b505050506040513d601f19601f820116820180604052508101906138aa9190614698565b60fe805491925060006138bc83614c2e565b909155509150610d1c3383613c92565b60006001600160a01b0384163b156139c257604051630a85bd0160e11b81526001600160a01b0385169063150b7a0290613910903390899088908890600401614c47565b6020604051808303816000875af192505050801561394b575060408051601f3d908101601f1916820190925261394891810190614c84565b60015b6139a8573d808015613979576040519150601f19603f3d011682016040523d82523d6000602084013e61397e565b606091505b5080516000036139a05760405162461bcd60e51b8152600401610a5090614a2a565b805181602001fd5b6001600160e01b031916630a85bd0160e11b149050612089565b506001949350505050565b600054610100900460ff166139f45760405162461bcd60e51b8152600401610a5090614a7c565b6097613a008382614ac7565b506098610af18282614ac7565b60008072184f03e93ff9f4daa797ed6e38ed64bf6a1f0160401b8310613a4c5772184f03e93ff9f4daa797ed6e38ed64bf6a1f0160401b830492506040015b6d04ee2d6d415b85acef81000000008310613a78576d04ee2d6d415b85acef8100000000830492506020015b662386f26fc100008310613a9657662386f26fc10000830492506010015b6305f5e1008310613aae576305f5e100830492506008015b6127108310613ac257612710830492506004015b60648310613ad4576064830492506002015b600a831061091d5760010192915050565b606061091d6001600160a01b03831660145b60606000613b0683600261465f565b613b11906002614a17565b6001600160401b03811115613b2857613b28614239565b6040519080825280601f01601f191660200182016040528015613b52576020820181803683370190505b509050600360fc1b81600081518110613b6d57613b6d6146ec565b60200101906001600160f81b031916908160001a905350600f60fb1b81600181518110613b9c57613b9c6146ec565b60200101906001600160f81b031916908160001a9053506000613bc084600261465f565b613bcb906001614a17565b90505b6001811115613c43576f181899199a1a9b1b9c1cb0b131b232b360811b85600f1660108110613bff57613bff6146ec565b1a60f81b828281518110613c1557613c156146ec565b60200101906001600160f81b031916908160001a90535060049490941c93613c3c81614ca1565b9050613bce565b508315610bc25760405162461bcd60e51b815260206004820181905260248201527f537472696e67733a20686578206c656e67746820696e73756666696369656e746044820152606401610a50565b610dc2828260405180602001604052806000815250613cb18383613cda565b613cbe60008484846138cc565b610af15760405162461bcd60e51b8152600401610a5090614a2a565b6001600160a01b038216613d305760405162461bcd60e51b815260206004820181905260248201527f4552433732313a206d696e7420746f20746865207a65726f20616464726573736044820152606401610a50565b6000818152609960205260409020546001600160a01b031615613d955760405162461bcd60e51b815260206004820152601c60248201527f4552433732313a20746f6b656e20616c7265616479206d696e746564000000006044820152606401610a50565b6000818152609960205260409020546001600160a01b031615613dfa5760405162461bcd60e51b815260206004820152601c60248201527f4552433732313a20746f6b656e20616c7265616479206d696e746564000000006044820152606401610a50565b6001600160a01b0382166000818152609a6020908152604080832080546001019055848352609990915280822080546001600160a01b0319168417905551839291907fddf252ad1be2c89b69c2b068fc378daa952ba7f163c4a11628f55a4df523b3ef908290a45050565b604051806080016040528060006001600160a01b031681526020016000815260200160008152602001600081525090565b6001600160e01b031981168114610e5357600080fd5b600060208284031215613ebe57600080fd5b8135610bc281613e96565b60005b83811015613ee4578181015183820152602001613ecc565b50506000910152565b60008151808452613f05816020860160208601613ec9565b601f01601f19169290920160200192915050565b602081526000610bc26020830184613eed565b600060208284031215613f3e57600080fd5b5035919050565b6001600160a01b0381168114610e5357600080fd5b60008060408385031215613f6d57600080fd5b8235613f7881613f45565b946020939093013593505050565b60008083601f840112613f9857600080fd5b5081356001600160401b03811115613faf57600080fd5b602083019150836020828501011115610d1c57600080fd5b600080600080600060808688031215613fdf57600080fd5b8535613fea81613f45565b94506020860135613ffa81613f45565b93506040860135925060608601356001600160401b0381111561401c57600080fd5b61402888828901613f86565b969995985093965092949392505050565b60008060006060848603121561404e57600080fd5b833561405981613f45565b95602085013595506040909401359392505050565b60008060006060848603121561408357600080fd5b833561408e81613f45565b9250602084013561409e81613f45565b929592945050506040919091013590565b600080604083850312156140c257600080fd5b50508035926020909101359150565b600080604083850312156140e457600080fd5b8235915060208301356140f681613f45565b809150509250929050565b600080600080600060a0868803121561411957600080fd5b853561412481613f45565b97602087013597506040870135966060810135965060800135945092505050565b6000806020838503121561415857600080fd5b82356001600160401b0381111561416e57600080fd5b61417a85828601613f86565b90969095509350505050565b60008060008060006080868803121561419e57600080fd5b85356141a981613f45565b9450602086013593506040860135925060608601356001600160401b0381111561401c57600080fd5b6000602082840312156141e457600080fd5b8135610bc281613f45565b803580151581146141ff57600080fd5b919050565b6000806040838503121561421757600080fd5b823561422281613f45565b9150614230602084016141ef565b90509250929050565b634e487b7160e01b600052604160045260246000fd5b6000806000806080858703121561426557600080fd5b843561427081613f45565b9350602085013561428081613f45565b92506040850135915060608501356001600160401b03808211156142a357600080fd5b818701915087601f8301126142b757600080fd5b8135818111156142c9576142c9614239565b604051601f8201601f19908116603f011681019083821181831017156142f1576142f1614239565b816040528281528a602084870101111561430a57600080fd5b82602086016020830137600060208483010152809550505050505092959194509250565b600080600080600085870360a081121561434757600080fd5b863561435281613f45565b9550602087013561436281613f45565b945060408701356001600160401b0381111561437d57600080fd5b61438989828a01613f86565b9095509350506040605f19820112156143a157600080fd5b506060860190509295509295909350565b60008083601f8401126143c457600080fd5b5081356001600160401b038111156143db57600080fd5b6020830191508360208260051b8501011115610d1c57600080fd5b6000806000806000806080878903121561440f57600080fd5b863561441a81613f45565b95506020870135945060408701356001600160401b038082111561443d57600080fd5b6144498a838b016143b2565b9096509450606089013591508082111561446257600080fd5b5061446f89828a016143b2565b979a9699509497509295939492505050565b60008060008060008060a0878903121561449a57600080fd5b86356144a581613f45565b955060208701359450604087013593506060870135925060808701356001600160401b038111156144d557600080fd5b61446f89828a01613f86565b600080604083850312156144f457600080fd5b82356144ff81613f45565b915060208301356140f681613f45565b600080600080600080600060c0888a03121561452a57600080fd5b873561453581613f45565b96506020880135955060408801359450606088013593506080880135925060a08801356001600160401b0381111561456c57600080fd5b6145788a828b016143b2565b989b979a50959850939692959293505050565b600181811c9082168061459f57607f821691505b6020821081036145bf57634e487b7160e01b600052602260045260246000fd5b50919050565b60208082526018908201527f446572697661626c65204d55535420626520656e61626c650000000000000000604082015260600190565b6020808252602d908201527f4552433732313a2063616c6c6572206973206e6f7420746f6b656e206f776e6560408201526c1c881bdc88185c1c1c9bdd9959609a1b606082015260800190565b634e487b7160e01b600052601160045260246000fd5b808202811582820484141761091d5761091d614649565b60008261469357634e487b7160e01b600052601260045260246000fd5b500490565b6000602082840312156146aa57600080fd5b8151610bc281613f45565b60208082526018908201527f436f6c6c656374696f6e204d5553542062652076616c69640000000000000000604082015260600190565b634e487b7160e01b600052603260045260246000fd5b601f821115610af157600081815260208120601f850160051c810160208610156147295750805b601f850160051c820191505b8181101561117157828155600101614735565b6001600160401b0383111561475f5761475f614239565b6147738361476d835461458b565b83614702565b6000601f8411600181146147a7576000851561478f5750838201355b600019600387901b1c1916600186901b178355614801565b600083815260209020601f19861690835b828110156147d857868501358255602094850194600190920191016147b8565b50868210156147f55760001960f88860031b161c19848701351681555b505060018560011b0183555b5050505050565b60208152816020820152818360408301376000818301604090810191909152601f909201601f19160101919050565b60208082526022908201527f546f6b656e204d55535420626520757361626c6520617420746865206d6f6d656040820152611b9d60f21b606082015260800190565b60006020828403121561488b57600080fd5b610bc2826141ef565b600083516148a6818460208801613ec9565b8351908301906148ba818360208801613ec9565b01949350505050565b600060ff821660ff81036148d9576148d9614649565b60010192915050565b6000808335601e198436030181126148f957600080fd5b8301803591506001600160401b0382111561491357600080fd5b602001915036819003821315610d1c57600080fd5b60208082526025908201527f4552433732313a207472616e736665722066726f6d20696e636f72726563742060408201526437bbb732b960d91b606082015260800190565b634e487b7160e01b600052600160045260246000fd5b6001600160a01b03888116825260208083018990529087166040830152606082018690526080820185905260a0820184905260e060c0830181905283519083018190526000918481019161010085019190845b818110156149f2578451845293820193928201926001016149d6565b50919c9b505050505050505050505050565b8181038181111561091d5761091d614649565b8082018082111561091d5761091d614649565b60208082526032908201527f4552433732313a207472616e7366657220746f206e6f6e20455243373231526560408201527131b2b4bb32b91034b6b83632b6b2b73a32b960711b606082015260800190565b6020808252602b908201527f496e697469616c697a61626c653a20636f6e7472616374206973206e6f74206960408201526a6e697469616c697a696e6760a81b606082015260800190565b81516001600160401b03811115614ae057614ae0614239565b614af481614aee845461458b565b84614702565b602080601f831160018114614b295760008415614b115750858301515b600019600386901b1c1916600185901b178555611171565b600085815260208120601f198616915b82811015614b5857888601518255948401946001909101908401614b39565b5085821015614b765787850151600019600388901b60f8161c191681555b5050505050600190811b01905550565b60018060a01b038616815284602082015283604082015282606082015260a060808201526000611d3b60a0830184613eed565b7f416363657373436f6e74726f6c3a206163636f756e7420000000000000000000815260008351614bf1816017850160208801613ec9565b7001034b99036b4b9b9b4b733903937b6329607d1b6017918401918201528351614c22816028840160208801613ec9565b01602801949350505050565b600060018201614c4057614c40614649565b5060010190565b6001600160a01b0385811682528416602082015260408101839052608060608201819052600090614c7a90830184613eed565b9695505050505050565b600060208284031215614c9657600080fd5b8151610bc281613e96565b600081614cb057614cb0614649565b50600019019056fefc00f5a507493aafe95ba5456618bf429c29e73d2995390ae0ed436a9b75225104994f67dc55b09e814ab7ffc8df3686b4afb2bb53e60eae97ef043fe03fb8292b8f168f361ac1393a163ed4adfa899a87be7b7c71645167bdaddd822ae453c8a2646970667358221220afc4376a213270e35bfca4df61399ad0cdb4b0f4bc18b7d9907e0fd95d449cfd64736f6c63430008140033",
  "linkReferences": {},
  "deployedLinkReferences": {}
}