{
  "_format": "hh-sol-artifact-1",
  "contractName": "FreeMintWhitelistFCFSStrategy",
  "sourceName": "contracts/addons/FreeMintWhitelistFCFSStrategy.sol",
  "abi": [
    {
      "anonymous": false,
      "inputs": [
        {
          "indexed": false,
          "internalType": "address",
          "name": "receiver",
          "type": "address"
        },
        {
          "indexed": false,
          "internalType": "uint256",
          "name": "amount",
          "type": "uint256"
        }
      ],
      "name": "FreeMint",
      "type": "event"
    },
    {
      "anonymous": false,
      "inputs": [
        {
          "indexed": false,
          "internalType": "uint8",
          "name": "version",
          "type": "uint8"
        }
      ],
      "name": "Initialized",
      "type": "event"
    },
    {
      "anonymous": false,
      "inputs": [
        {
          "indexed": true,
          "internalType": "bytes32",
          "name": "role",
          "type": "bytes32"
        },
        {
          "indexed": true,
          "internalType": "bytes32",
          "name": "previousAdminRole",
          "type": "bytes32"
        },
        {
          "indexed": true,
          "internalType": "bytes32",
          "name": "newAdminRole",
          "type": "bytes32"
        }
      ],
      "name": "RoleAdminChanged",
      "type": "event"
    },
    {
      "anonymous": false,
      "inputs": [
        {
          "indexed": true,
          "internalType": "bytes32",
          "name": "role",
          "type": "bytes32"
        },
        {
          "indexed": true,
          "internalType": "address",
          "name": "account",
          "type": "address"
        },
        {
          "indexed": true,
          "internalType": "address",
          "name": "sender",
          "type": "address"
        }
      ],
      "name": "RoleGranted",
      "type": "event"
    },
    {
      "anonymous": false,
      "inputs": [
        {
          "indexed": true,
          "internalType": "bytes32",
          "name": "role",
          "type": "bytes32"
        },
        {
          "indexed": true,
          "internalType": "address",
          "name": "account",
          "type": "address"
        },
        {
          "indexed": true,
          "internalType": "address",
          "name": "sender",
          "type": "address"
        }
      ],
      "name": "RoleRevoked",
      "type": "event"
    },
    {
      "anonymous": false,
      "inputs": [
        {
          "indexed": false,
          "internalType": "bytes32",
          "name": "merkleRoot",
          "type": "bytes32"
        }
      ],
      "name": "UpdateMerkleRoot",
      "type": "event"
    },
    {
      "inputs": [],
      "name": "DEFAULT_ADMIN_ROLE",
      "outputs": [
        {
          "internalType": "bytes32",
          "name": "",
          "type": "bytes32"
        }
      ],
      "stateMutability": "view",
      "type": "function"
    },
    {
      "inputs": [],
      "name": "WHITELIST_KIND",
      "outputs": [
        {
          "internalType": "enum IAddonsManager.AddonsKind",
          "name": "",
          "type": "uint8"
        }
      ],
      "stateMutability": "view",
      "type": "function"
    },
    {
      "inputs": [],
      "name": "campaignId",
      "outputs": [
        {
          "internalType": "bytes32",
          "name": "",
          "type": "bytes32"
        }
      ],
      "stateMutability": "view",
      "type": "function"
    },
    {
      "inputs": [
        {
          "internalType": "bytes",
          "name": "leafData",
          "type": "bytes"
        },
        {
          "internalType": "bytes32[]",
          "name": "proof",
          "type": "bytes32[]"
        },
        {
          "internalType": "address",
          "name": "receiver",
          "type": "address"
        }
      ],
      "name": "claimableAmount",
      "outputs": [
        {
          "internalType": "uint256",
          "name": "amount",
          "type": "uint256"
        }
      ],
      "stateMutability": "view",
      "type": "function"
    },
    {
      "inputs": [],
      "name": "collection",
      "outputs": [
        {
          "internalType": "address",
          "name": "",
          "type": "address"
        }
      ],
      "stateMutability": "view",
      "type": "function"
    },
    {
      "inputs": [],
      "name": "endTime",
      "outputs": [
        {
          "internalType": "uint256",
          "name": "",
          "type": "uint256"
        }
      ],
      "stateMutability": "view",
      "type": "function"
    },
    {
      "inputs": [],
      "name": "factory",
      "outputs": [
        {
          "internalType": "address",
          "name": "",
          "type": "address"
        }
      ],
      "stateMutability": "view",
      "type": "function"
    },
    {
      "inputs": [],
      "name": "fee",
      "outputs": [
        {
          "internalType": "uint256",
          "name": "",
          "type": "uint256"
        }
      ],
      "stateMutability": "view",
      "type": "function"
    },
    {
      "inputs": [],
      "name": "feeReceiver",
      "outputs": [
        {
          "internalType": "address",
          "name": "",
          "type": "address"
        }
      ],
      "stateMutability": "view",
      "type": "function"
    },
    {
      "inputs": [
        {
          "internalType": "bytes",
          "name": "leafData",
          "type": "bytes"
        },
        {
          "internalType": "bytes32[]",
          "name": "proof",
          "type": "bytes32[]"
        },
        {
          "internalType": "uint256",
          "name": "amount",
          "type": "uint256"
        }
      ],
      "name": "freeMintWhitelist",
      "outputs": [],
      "stateMutability": "payable",
      "type": "function"
    },
    {
      "inputs": [
        {
          "internalType": "bytes32",
          "name": "role",
          "type": "bytes32"
        }
      ],
      "name": "getRoleAdmin",
      "outputs": [
        {
          "internalType": "bytes32",
          "name": "",
          "type": "bytes32"
        }
      ],
      "stateMutability": "view",
      "type": "function"
    },
    {
      "inputs": [
        {
          "internalType": "bytes32",
          "name": "role",
          "type": "bytes32"
        },
        {
          "internalType": "address",
          "name": "account",
          "type": "address"
        }
      ],
      "name": "grantRole",
      "outputs": [],
      "stateMutability": "nonpayable",
      "type": "function"
    },
    {
      "inputs": [
        {
          "internalType": "bytes32",
          "name": "role",
          "type": "bytes32"
        },
        {
          "internalType": "address",
          "name": "account",
          "type": "address"
        }
      ],
      "name": "hasRole",
      "outputs": [
        {
          "internalType": "bool",
          "name": "",
          "type": "bool"
        }
      ],
      "stateMutability": "view",
      "type": "function"
    },
    {
      "inputs": [
        {
          "internalType": "address",
          "name": "owner",
          "type": "address"
        },
        {
          "internalType": "address",
          "name": "_collection",
          "type": "address"
        },
        {
          "internalType": "string",
          "name": "_name",
          "type": "string"
        },
        {
          "internalType": "uint256",
          "name": "_startTime",
          "type": "uint256"
        },
        {
          "internalType": "uint256",
          "name": "_endTime",
          "type": "uint256"
        },
        {
          "internalType": "uint256",
          "name": "_fee",
          "type": "uint256"
        }
      ],
      "name": "initialize",
      "outputs": [],
      "stateMutability": "nonpayable",
      "type": "function"
    },
    {
      "inputs": [],
      "name": "merkleRoot",
      "outputs": [
        {
          "internalType": "bytes32",
          "name": "",
          "type": "bytes32"
        }
      ],
      "stateMutability": "view",
      "type": "function"
    },
    {
      "inputs": [],
      "name": "name",
      "outputs": [
        {
          "internalType": "string",
          "name": "",
          "type": "string"
        }
      ],
      "stateMutability": "view",
      "type": "function"
    },
    {
      "inputs": [
        {
          "internalType": "bytes32",
          "name": "role",
          "type": "bytes32"
        },
        {
          "internalType": "address",
          "name": "account",
          "type": "address"
        }
      ],
      "name": "renounceRole",
      "outputs": [],
      "stateMutability": "nonpayable",
      "type": "function"
    },
    {
      "inputs": [
        {
          "internalType": "bytes32",
          "name": "role",
          "type": "bytes32"
        },
        {
          "internalType": "address",
          "name": "account",
          "type": "address"
        }
      ],
      "name": "revokeRole",
      "outputs": [],
      "stateMutability": "nonpayable",
      "type": "function"
    },
    {
      "inputs": [],
      "name": "startTime",
      "outputs": [
        {
          "internalType": "uint256",
          "name": "",
          "type": "uint256"
        }
      ],
      "stateMutability": "view",
      "type": "function"
    },
    {
      "inputs": [
        {
          "internalType": "bytes4",
          "name": "interfaceId",
          "type": "bytes4"
        }
      ],
      "name": "supportsInterface",
      "outputs": [
        {
          "internalType": "bool",
          "name": "",
          "type": "bool"
        }
      ],
      "stateMutability": "view",
      "type": "function"
    },
    {
      "inputs": [
        {
          "internalType": "bytes32",
          "name": "_merkleRoot",
          "type": "bytes32"
        }
      ],
      "name": "updateMerkleRoot",
      "outputs": [],
      "stateMutability": "nonpayable",
      "type": "function"
    }
  ],
  "bytecode": "0x608060405234801561001057600080fd5b50611819806100206000396000f3fe60806040526004361061012a5760003560e01c80637de1e536116100ab578063a217fddf1161006f578063a217fddf14610337578063b3f006741461034c578063b85433131461036c578063c45a01551461037f578063d547741f1461039f578063ddca3f43146103bf57600080fd5b80637de1e536146102885780638ed5b0fc146102c05780638fdbc57b146102d5578063916b9d5f146102f557806391d148541461031757600080fd5b80633197cbb6116100f25780633197cbb6146101fc57806336568abe146102125780634783f0ef146102325780636f293d9e1461025257806378e979251461027257600080fd5b806301ffc9a71461012f57806306fdde0314610164578063248a9ca3146101865780632eb4a7ab146101c45780632f2ff15d146101da575b600080fd5b34801561013b57600080fd5b5061014f61014a366004611141565b6103d5565b60405190151581526020015b60405180910390f35b34801561017057600080fd5b5061017961040c565b60405161015b919061118f565b34801561019257600080fd5b506101b66101a13660046111c2565b60009081526065602052604090206001015490565b60405190815260200161015b565b3480156101d057600080fd5b506101b6609e5481565b3480156101e657600080fd5b506101fa6101f53660046111f7565b61049a565b005b34801561020857600080fd5b506101b6609b5481565b34801561021e57600080fd5b506101fa61022d3660046111f7565b6104c4565b34801561023e57600080fd5b506101fa61024d3660046111c2565b610547565b34801561025e57600080fd5b506101fa61026d36600461126c565b61058e565b34801561027e57600080fd5b506101b6609a5481565b34801561029457600080fd5b506098546102a8906001600160a01b031681565b6040516001600160a01b03909116815260200161015b565b3480156102cc57600080fd5b506101b661077a565b3480156102e157600080fd5b506101b66102f036600461132d565b6107c4565b34801561030157600080fd5b5061030a600081565b60405161015b91906113d0565b34801561032357600080fd5b5061014f6103323660046111f7565b61087b565b34801561034357600080fd5b506101b6600081565b34801561035857600080fd5b50609d546102a8906001600160a01b031681565b6101fa61037a3660046113de565b6108a6565b34801561038b57600080fd5b506097546102a8906001600160a01b031681565b3480156103ab57600080fd5b506101fa6103ba3660046111f7565b610bf9565b3480156103cb57600080fd5b506101b6609c5481565b60006001600160e01b03198216637965db0b60e01b148061040657506301ffc9a760e01b6001600160e01b03198316145b92915050565b6099805461041990611452565b80601f016020809104026020016040519081016040528092919081815260200182805461044590611452565b80156104925780601f1061046757610100808354040283529160200191610492565b820191906000526020600020905b81548152906001019060200180831161047557829003601f168201915b505050505081565b6000828152606560205260409020600101546104b581610c1e565b6104bf8383610c2b565b505050565b6001600160a01b03811633146105395760405162461bcd60e51b815260206004820152602f60248201527f416363657373436f6e74726f6c3a2063616e206f6e6c792072656e6f756e636560448201526e103937b632b9903337b91039b2b63360891b60648201526084015b60405180910390fd5b6105438282610cb1565b5050565b600061055281610c1e565b609e8290556040518281527fae8bdbc15b982b030d313524fca26f653a8826332c662cb93c670068172d217e9060200160405180910390a15050565b600054610100900460ff16158080156105ae5750600054600160ff909116105b806105c85750303b1580156105c8575060005460ff166001145b61062b5760405162461bcd60e51b815260206004820152602e60248201527f496e697469616c697a61626c653a20636f6e747261637420697320616c72656160448201526d191e481a5b9a5d1a585b1a5e995960921b6064820152608401610530565b6000805460ff19166001179055801561064e576000805461ff0019166101001790555b828411156106b25760405162461bcd60e51b815260206004820152602b60248201527f53746172742074696d65204d555354206265206c657373207468616e2065717560448201526a616c20456e642074696d6560a81b6064820152608401610530565b609780546001600160a01b031916331790556106cc610d18565b6106d7600089610c2b565b609880546001600160a01b0319166001600160a01b03891617905560996106ff8688836114f0565b50609a849055609b839055609c829055609d80546001600160a01b0319166001600160a01b038a161790558015610770576000805461ff0019169055604051600181527f7f26b83ff96e1f2b6a682f133852f6798a09c465da95921460cefb38474024989060200160405180910390a15b5050505050505050565b609854609a54609b54609c546040516000946107a9946001600160a01b039091169386936099936020016115b0565b60405160208183030381529060405280519060200120905090565b6000806107d387878787610d85565b9050826001600160a01b031681600001516001600160a01b0316146108465760405162461bcd60e51b815260206004820152602360248201527f5265636569766572204d5553542062652077686974656c69737465642077616c6044820152621b195d60ea1b6064820152608401610530565b6001600160a01b038316600090815260d16020908152604090912054908201516108709190611684565b979650505050505050565b60009182526065602090815260408084206001600160a01b0393909316845291905290205460ff1690565b6108ae610e48565b609a541561091757609a544210156109175760405162461bcd60e51b815260206004820152602660248201527f467265654d696e742063616d706169676e206973206e6f7420617661696c61626044820152651b19481e595d60d21b6064820152608401610530565b609b541561097f57609b5442111561097f5760405162461bcd60e51b815260206004820152602560248201527f467265654d696e742063616d706169676e2069732066696e697368656420616c604482015264726561647960d81b6064820152608401610530565b609c5415610a3657609c543410156109d95760405162461bcd60e51b815260206004820152601d60248201527f4d6573736167652076616c756520697320696e73756666696369656e740000006044820152606401610530565b609d54609c5460405160009283926001600160a01b03909116918381818185875af1925050503d8060008114610a2b576040519150601f19603f3d011682016040523d82523d6000602084013e610a30565b606091505b50505050505b6000610a4486868686610d85565b80519091506001600160a01b03163314610aaa5760405162461bcd60e51b815260206004820152602160248201527f53656e646572204d5553542062652077686974656c69737465642077616c6c656044820152601d60fa1b6064820152608401610530565b60208082015133600090815260d1909252604090912054610acc908490611697565b1115610b255760405162461bcd60e51b815260206004820152602260248201527f43616e206e6f7420636c61696d206d6f7265207468616e20616c6c6f6361746960448201526137b760f11b6064820152608401610530565b33600090815260d1602052604081208054849290610b44908490611697565b90915550506098546040516309792c4960e31b8152336004820152602481018490526001600160a01b0390911690634bc9624890604401600060405180830381600087803b158015610b9557600080fd5b505af1158015610ba9573d6000803e3d6000fd5b505060408051338152602081018690527f1a75c98f3caa5c596c30e5e4c83e0802685273950677d98a322c514a03b05b57935001905060405180910390a150610bf26001609f55565b5050505050565b600082815260656020526040902060010154610c1481610c1e565b6104bf8383610cb1565b610c288133610ea1565b50565b610c35828261087b565b6105435760008281526065602090815260408083206001600160a01b03851684529091529020805460ff19166001179055610c6d3390565b6001600160a01b0316816001600160a01b0316837f2f8788117e7eff1d82e926ec794901d17c78024a50270940304540a733656f0d60405160405180910390a45050565b610cbb828261087b565b156105435760008281526065602090815260408083206001600160a01b0385168085529252808320805460ff1916905551339285917ff6391f5c32d9c69d2a47ea670b442974b53935d1edc7fd64eb21e047a839171b9190a45050565b600054610100900460ff16610d835760405162461bcd60e51b815260206004820152602b60248201527f496e697469616c697a61626c653a20636f6e7472616374206973206e6f74206960448201526a6e697469616c697a696e6760a81b6064820152608401610530565b565b604080518082019091526000808252602082015260008585604051610dab9291906116aa565b60405180910390209050610df684848080602002602001604051908101604052809392919081815260200183836020028082843760009201919091525050609e549150849050610efa565b610e325760405162461bcd60e51b815260206004820152600d60248201526c24b73b30b634b210383937b7b360991b6044820152606401610530565b610e3e858701876116ba565b9695505050505050565b6002609f5403610e9a5760405162461bcd60e51b815260206004820152601f60248201527f5265656e7472616e637947756172643a207265656e7472616e742063616c6c006044820152606401610530565b6002609f55565b610eab828261087b565b61054357610eb881610f10565b610ec3836020610f22565b604051602001610ed4929190611711565b60408051601f198184030181529082905262461bcd60e51b82526105309160040161118f565b600082610f0785846110c5565b14949350505050565b60606104066001600160a01b03831660145b60606000610f31836002611786565b610f3c906002611697565b67ffffffffffffffff811115610f5457610f5461148c565b6040519080825280601f01601f191660200182016040528015610f7e576020820181803683370190505b509050600360fc1b81600081518110610f9957610f9961179d565b60200101906001600160f81b031916908160001a905350600f60fb1b81600181518110610fc857610fc861179d565b60200101906001600160f81b031916908160001a9053506000610fec846002611786565b610ff7906001611697565b90505b600181111561106f576f181899199a1a9b1b9c1cb0b131b232b360811b85600f166010811061102b5761102b61179d565b1a60f81b8282815181106110415761104161179d565b60200101906001600160f81b031916908160001a90535060049490941c93611068816117b3565b9050610ffa565b5083156110be5760405162461bcd60e51b815260206004820181905260248201527f537472696e67733a20686578206c656e67746820696e73756666696369656e746044820152606401610530565b9392505050565b600081815b845181101561110a576110f6828683815181106110e9576110e961179d565b6020026020010151611112565b915080611102816117ca565b9150506110ca565b509392505050565b600081831061112e5760008281526020849052604090206110be565b60008381526020839052604090206110be565b60006020828403121561115357600080fd5b81356001600160e01b0319811681146110be57600080fd5b60005b8381101561118657818101518382015260200161116e565b50506000910152565b60208152600082518060208401526111ae81604085016020870161116b565b601f01601f19169190910160400192915050565b6000602082840312156111d457600080fd5b5035919050565b80356001600160a01b03811681146111f257600080fd5b919050565b6000806040838503121561120a57600080fd5b8235915061121a602084016111db565b90509250929050565b60008083601f84011261123557600080fd5b50813567ffffffffffffffff81111561124d57600080fd5b60208301915083602082850101111561126557600080fd5b9250929050565b600080600080600080600060c0888a03121561128757600080fd5b611290886111db565b965061129e602089016111db565b9550604088013567ffffffffffffffff8111156112ba57600080fd5b6112c68a828b01611223565b989b979a50986060810135976080820135975060a09091013595509350505050565b60008083601f8401126112fa57600080fd5b50813567ffffffffffffffff81111561131257600080fd5b6020830191508360208260051b850101111561126557600080fd5b60008060008060006060868803121561134557600080fd5b853567ffffffffffffffff8082111561135d57600080fd5b61136989838a01611223565b9097509550602088013591508082111561138257600080fd5b5061138f888289016112e8565b90945092506113a29050604087016111db565b90509295509295909350565b600381106113cc57634e487b7160e01b600052602160045260246000fd5b9052565b6020810161040682846113ae565b6000806000806000606086880312156113f657600080fd5b853567ffffffffffffffff8082111561140e57600080fd5b61141a89838a01611223565b9097509550602088013591508082111561143357600080fd5b50611440888289016112e8565b96999598509660400135949350505050565b600181811c9082168061146657607f821691505b60208210810361148657634e487b7160e01b600052602260045260246000fd5b50919050565b634e487b7160e01b600052604160045260246000fd5b601f8211156104bf57600081815260208120601f850160051c810160208610156114c95750805b601f850160051c820191505b818110156114e8578281556001016114d5565b505050505050565b67ffffffffffffffff8311156115085761150861148c565b61151c836115168354611452565b836114a2565b6000601f84116001811461155057600085156115385750838201355b600019600387901b1c1916600186901b178355610bf2565b600083815260209020601f19861690835b828110156115815786850135825560209485019460019092019101611561565b508682101561159e5760001960f88860031b161c19848701351681555b505060018560011b0183555050505050565b6001600160a01b0387168152600060206115cc818401896113ae565b60c06040840152600087546115e081611452565b8060c087015260e0600180841660008114611602576001811461161c5761164a565b60ff1985168984015283151560051b89018301955061164a565b8c6000528660002060005b858110156116425781548b8201860152908301908801611627565b8a0184019650505b505050505060608401969096525050608081019290925260a0909101529392505050565b634e487b7160e01b600052601160045260246000fd5b818103818111156104065761040661166e565b808201808211156104065761040661166e565b8183823760009101908152919050565b6000604082840312156116cc57600080fd5b6040516040810181811067ffffffffffffffff821117156116ef576116ef61148c565b6040526116fb836111db565b8152602083013560208201528091505092915050565b7f416363657373436f6e74726f6c3a206163636f756e742000000000000000000081526000835161174981601785016020880161116b565b7001034b99036b4b9b9b4b733903937b6329607d1b601791840191820152835161177a81602884016020880161116b565b01602801949350505050565b80820281158282048414176104065761040661166e565b634e487b7160e01b600052603260045260246000fd5b6000816117c2576117c261166e565b506000190190565b6000600182016117dc576117dc61166e565b506001019056fea26469706673582212202c8fdce811fb43546ca62e01a70cf3da5a0cca61f3e4a1ac56c7c3d44ca32a5164736f6c63430008140033",
  "linkReferences": {},
  "deployedLinkReferences": {}
}